{
  "_format": "hh-sol-artifact-1",
  "contractName": "ReputationWithZK",
  "sourceName": "contracts/ReputationWithZK.sol",
  "abi": [
    {
      "inputs": [
        {
          "internalType": "address",
          "name": "_verifier",
          "type": "address"
        }
      ],
      "stateMutability": "nonpayable",
      "type": "constructor"
    },
    {
      "anonymous": false,
      "inputs": [
        {
          "indexed": true,
          "internalType": "address",
          "name": "model",
          "type": "address"
        },
        {
          "indexed": true,
          "internalType": "address",
          "name": "user",
          "type": "address"
        },
        {
          "indexed": false,
          "internalType": "uint256",
          "name": "scoreHash",
          "type": "uint256"
        }
      ],
      "name": "FeedbackSubmitted",
      "type": "event"
    },
    {
      "inputs": [
        {
          "internalType": "address",
          "name": "",
          "type": "address"
        }
      ],
      "name": "feedbackCount",
      "outputs": [
        {
          "internalType": "uint256",
          "name": "",
          "type": "uint256"
        }
      ],
      "stateMutability": "view",
      "type": "function"
    },
    {
      "inputs": [
        {
          "internalType": "address",
          "name": "",
          "type": "address"
        },
        {
          "internalType": "uint256",
          "name": "",
          "type": "uint256"
        }
      ],
      "name": "feedbacks",
      "outputs": [
        {
          "internalType": "uint256",
          "name": "scoreHash",
          "type": "uint256"
        },
        {
          "internalType": "address",
          "name": "user",
          "type": "address"
        },
        {
          "internalType": "uint256",
          "name": "timestamp",
          "type": "uint256"
        }
      ],
      "stateMutability": "view",
      "type": "function"
    },
    {
      "inputs": [
        {
          "internalType": "address",
          "name": "model",
          "type": "address"
        }
      ],
      "name": "getAverage",
      "outputs": [
        {
          "internalType": "uint256",
          "name": "avgTimes100",
          "type": "uint256"
        }
      ],
      "stateMutability": "view",
      "type": "function"
    },
    {
      "inputs": [
        {
          "internalType": "address",
          "name": "",
          "type": "address"
        }
      ],
      "name": "reputationSum",
      "outputs": [
        {
          "internalType": "uint256",
          "name": "",
          "type": "uint256"
        }
      ],
      "stateMutability": "view",
      "type": "function"
    },
    {
      "inputs": [
        {
          "internalType": "address",
          "name": "model",
          "type": "address"
        },
        {
          "components": [
            {
              "components": [
                {
                  "internalType": "uint256",
                  "name": "X",
                  "type": "uint256"
                },
                {
                  "internalType": "uint256",
                  "name": "Y",
                  "type": "uint256"
                }
              ],
              "internalType": "struct IVerifier.G1Point",
              "name": "A",
              "type": "tuple"
            },
            {
              "components": [
                {
                  "internalType": "uint256[2]",
                  "name": "X",
                  "type": "uint256[2]"
                },
                {
                  "internalType": "uint256[2]",
                  "name": "Y",
                  "type": "uint256[2]"
                }
              ],
              "internalType": "struct IVerifier.G2Point",
              "name": "B",
              "type": "tuple"
            },
            {
              "components": [
                {
                  "internalType": "uint256",
                  "name": "X",
                  "type": "uint256"
                },
                {
                  "internalType": "uint256",
                  "name": "Y",
                  "type": "uint256"
                }
              ],
              "internalType": "struct IVerifier.G1Point",
              "name": "C",
              "type": "tuple"
            }
          ],
          "internalType": "struct IVerifier.Proof",
          "name": "proof",
          "type": "tuple"
        },
        {
          "internalType": "uint256[10]",
          "name": "input",
          "type": "uint256[10]"
        },
        {
          "internalType": "uint256",
          "name": "scoreHash",
          "type": "uint256"
        },
        {
          "internalType": "uint256",
          "name": "revealedScore",
          "type": "uint256"
        }
      ],
      "name": "submitFeedbackZK",
      "outputs": [],
      "stateMutability": "nonpayable",
      "type": "function"
    },
    {
      "inputs": [],
      "name": "verifier",
      "outputs": [
        {
          "internalType": "contract IVerifier",
          "name": "",
          "type": "address"
        }
      ],
      "stateMutability": "view",
      "type": "function"
    }
  ],
  "bytecode": "0x60806040523480156200001157600080fd5b506040516200122c3803806200122c8339818101604052810190620000379190620000e8565b806000806101000a81548173ffffffffffffffffffffffffffffffffffffffff021916908373ffffffffffffffffffffffffffffffffffffffff160217905550506200011a565b600080fd5b600073ffffffffffffffffffffffffffffffffffffffff82169050919050565b6000620000b08262000083565b9050919050565b620000c281620000a3565b8114620000ce57600080fd5b50565b600081519050620000e281620000b7565b92915050565b6000602082840312156200010157620001006200007e565b5b60006200011184828501620000d1565b91505092915050565b611102806200012a6000396000f3fe608060405234801561001057600080fd5b50600436106100625760003560e01c80632b7ac3f314610067578063848d7310146100855780638c6529c1146100a1578063ce427bff146100d3578063d216176e14610103578063da1b3fe214610133575b600080fd5b61006f610163565b60405161007c91906106e7565b60405180910390f35b61009f600480360381019061009a9190610a87565b610187565b005b6100bb60048036038101906100b69190610b06565b61051a565b6040516100ca93929190610b64565b60405180910390f35b6100ed60048036038101906100e89190610b9b565b610581565b6040516100fa9190610bc8565b60405180910390f35b61011d60048036038101906101189190610b9b565b610638565b60405161012a9190610bc8565b60405180910390f35b61014d60048036038101906101489190610b9b565b610650565b60405161015a9190610bc8565b60405180910390f35b60008054906101000a900473ffffffffffffffffffffffffffffffffffffffff1681565b6064836000600a811061019d5761019c610be3565b5b6020020151146101e2576040517f08c379a00000000000000000000000000000000000000000000000000000000081526004016101d990610c6f565b60405180910390fd5b60008054906101000a900473ffffffffffffffffffffffffffffffffffffffff1673ffffffffffffffffffffffffffffffffffffffff166311bfe45a85856040518363ffffffff1660e01b815260040161023d929190610e5f565b602060405180830381865afa15801561025a573d6000803e3d6000fd5b505050506040513d601f19601f8201168201806040525081019061027e9190610ec2565b6102bd576040517f08c379a00000000000000000000000000000000000000000000000000000000081526004016102b490610f3b565b60405180910390fd5b600360008673ffffffffffffffffffffffffffffffffffffffff1673ffffffffffffffffffffffffffffffffffffffff16815260200190815260200160002060405180606001604052808481526020013373ffffffffffffffffffffffffffffffffffffffff1681526020014281525090806001815401808255809150506001900390600052602060002090600302016000909190919091506000820151816000015560208201518160010160006101000a81548173ffffffffffffffffffffffffffffffffffffffff021916908373ffffffffffffffffffffffffffffffffffffffff1602179055506040820151816002015550506001600260008773ffffffffffffffffffffffffffffffffffffffff1673ffffffffffffffffffffffffffffffffffffffff16815260200190815260200160002060008282546104039190610f8a565b9250508190555060008111156104ae576064811115610457576040517f08c379a000000000000000000000000000000000000000000000000000000000815260040161044e9061100a565b60405180910390fd5b80600160008773ffffffffffffffffffffffffffffffffffffffff1673ffffffffffffffffffffffffffffffffffffffff16815260200190815260200160002060008282546104a69190610f8a565b925050819055505b3373ffffffffffffffffffffffffffffffffffffffff168573ffffffffffffffffffffffffffffffffffffffff167fe05f16f280c4b695e5f4cac026c5cbf6f0115d82d183abeed61436dde8b5da1d8460405161050b9190610bc8565b60405180910390a35050505050565b6003602052816000526040600020818154811061053657600080fd5b9060005260206000209060030201600091509150508060000154908060010160009054906101000a900473ffffffffffffffffffffffffffffffffffffffff16908060020154905083565b600080600260008473ffffffffffffffffffffffffffffffffffffffff1673ffffffffffffffffffffffffffffffffffffffff168152602001908152602001600020549050600081036105d8576000915050610633565b806064600160008673ffffffffffffffffffffffffffffffffffffffff1673ffffffffffffffffffffffffffffffffffffffff16815260200190815260200160002054610625919061102a565b61062f919061109b565b9150505b919050565b60016020528060005260406000206000915090505481565b60026020528060005260406000206000915090505481565b600073ffffffffffffffffffffffffffffffffffffffff82169050919050565b6000819050919050565b60006106ad6106a86106a384610668565b610688565b610668565b9050919050565b60006106bf82610692565b9050919050565b60006106d1826106b4565b9050919050565b6106e1816106c6565b82525050565b60006020820190506106fc60008301846106d8565b92915050565b6000604051905090565b600080fd5b600061071c82610668565b9050919050565b61072c81610711565b811461073757600080fd5b50565b60008135905061074981610723565b92915050565b600080fd5b6000601f19601f8301169050919050565b7f4e487b7100000000000000000000000000000000000000000000000000000000600052604160045260246000fd5b61079d82610754565b810181811067ffffffffffffffff821117156107bc576107bb610765565b5b80604052505050565b60006107cf610702565b90506107db8282610794565b919050565b6000819050919050565b6107f3816107e0565b81146107fe57600080fd5b50565b600081359050610810816107ea565b92915050565b60006040828403121561082c5761082b61074f565b5b61083660406107c5565b9050600061084684828501610801565b600083015250602061085a84828501610801565b60208301525092915050565b600080fd5b600067ffffffffffffffff82111561088657610885610765565b5b602082029050919050565b600080fd5b60006108a96108a48461086b565b6107c5565b905080602084028301858111156108c3576108c2610891565b5b835b818110156108ec57806108d88882610801565b8452602084019350506020810190506108c5565b5050509392505050565b600082601f83011261090b5761090a610866565b5b6002610918848285610896565b91505092915050565b6000608082840312156109375761093661074f565b5b61094160406107c5565b90506000610951848285016108f6565b6000830152506040610965848285016108f6565b60208301525092915050565b600061010082840312156109885761098761074f565b5b61099260606107c5565b905060006109a284828501610816565b60008301525060406109b684828501610921565b60208301525060c06109ca84828501610816565b60408301525092915050565b600067ffffffffffffffff8211156109f1576109f0610765565b5b602082029050919050565b6000610a0f610a0a846109d6565b6107c5565b90508060208402830185811115610a2957610a28610891565b5b835b81811015610a525780610a3e8882610801565b845260208401935050602081019050610a2b565b5050509392505050565b600082601f830112610a7157610a70610866565b5b600a610a7e8482856109fc565b91505092915050565b60008060008060006102a08688031215610aa457610aa361070c565b5b6000610ab28882890161073a565b9550506020610ac388828901610971565b945050610120610ad588828901610a5c565b935050610260610ae788828901610801565b925050610280610af988828901610801565b9150509295509295909350565b60008060408385031215610b1d57610b1c61070c565b5b6000610b2b8582860161073a565b9250506020610b3c85828601610801565b9150509250929050565b610b4f816107e0565b82525050565b610b5e81610711565b82525050565b6000606082019050610b796000830186610b46565b610b866020830185610b55565b610b936040830184610b46565b949350505050565b600060208284031215610bb157610bb061070c565b5b6000610bbf8482850161073a565b91505092915050565b6000602082019050610bdd6000830184610b46565b92915050565b7f4e487b7100000000000000000000000000000000000000000000000000000000600052603260045260246000fd5b600082825260208201905092915050565b7f426f756e64206d75737420626520313030000000000000000000000000000000600082015250565b6000610c59601183610c12565b9150610c6482610c23565b602082019050919050565b60006020820190508181036000830152610c8881610c4c565b9050919050565b610c98816107e0565b82525050565b604082016000820151610cb46000850182610c8f565b506020820151610cc76020850182610c8f565b50505050565b600060029050919050565b600081905092915050565b6000819050919050565b6000610cf98383610c8f565b60208301905092915050565b6000602082019050919050565b610d1b81610ccd565b610d258184610cd8565b9250610d3082610ce3565b8060005b83811015610d61578151610d488782610ced565b9650610d5383610d05565b925050600181019050610d34565b505050505050565b608082016000820151610d7f6000850182610d12565b506020820151610d926040850182610d12565b50505050565b61010082016000820151610daf6000850182610c9e565b506020820151610dc26040850182610d69565b506040820151610dd560c0850182610c9e565b50505050565b6000600a9050919050565b600081905092915050565b6000819050919050565b6000602082019050919050565b610e1181610ddb565b610e1b8184610de6565b9250610e2682610df1565b8060005b83811015610e57578151610e3e8782610ced565b9650610e4983610dfb565b925050600181019050610e2a565b505050505050565b600061024082019050610e756000830185610d98565b610e83610100830184610e08565b9392505050565b60008115159050919050565b610e9f81610e8a565b8114610eaa57600080fd5b50565b600081519050610ebc81610e96565b92915050565b600060208284031215610ed857610ed761070c565b5b6000610ee684828501610ead565b91505092915050565b7f496e76616c6964205a4b2070726f6f6600000000000000000000000000000000600082015250565b6000610f25601083610c12565b9150610f3082610eef565b602082019050919050565b60006020820190508181036000830152610f5481610f18565b9050919050565b7f4e487b7100000000000000000000000000000000000000000000000000000000600052601160045260246000fd5b6000610f95826107e0565b9150610fa0836107e0565b9250828201905080821115610fb857610fb7610f5b565b5b92915050565b7f4261642072657665616c00000000000000000000000000000000000000000000600082015250565b6000610ff4600a83610c12565b9150610fff82610fbe565b602082019050919050565b6000602082019050818103600083015261102381610fe7565b9050919050565b6000611035826107e0565b9150611040836107e0565b925082820261104e816107e0565b9150828204841483151761106557611064610f5b565b5b5092915050565b7f4e487b7100000000000000000000000000000000000000000000000000000000600052601260045260246000fd5b60006110a6826107e0565b91506110b1836107e0565b9250826110c1576110c061106c565b5b82820490509291505056fea2646970667358221220272169c2d0cad3342c3cbc07689a152f07da2ba45f420aaf5987b7a2d7f9fe8064736f6c63430008140033",
  "linkReferences": {},
  "deployedLinkReferences": {}
}