{
  "_format": "hh-sol-artifact-1",
  "contractName": "ReputationManager",
  "sourceName": "contracts/ReputationManager.sol",
  "abi": [
    {
      "inputs": [
        {
          "internalType": "address",
          "name": "_verifier",
          "type": "address"
        },
        {
          "internalType": "address",
          "name": "oracle",
          "type": "address"
        }
      ],
      "stateMutability": "nonpayable",
      "type": "constructor"
    },
    {
      "inputs": [],
      "name": "AccessControlBadConfirmation",
      "type": "error"
    },
    {
      "inputs": [
        {
          "internalType": "address",
          "name": "account",
          "type": "address"
        },
        {
          "internalType": "bytes32",
          "name": "neededRole",
          "type": "bytes32"
        }
      ],
      "name": "AccessControlUnauthorizedAccount",
      "type": "error"
    },
    {
      "anonymous": false,
      "inputs": [
        {
          "indexed": true,
          "internalType": "bytes32",
          "name": "modelId",
          "type": "bytes32"
        },
        {
          "indexed": false,
          "internalType": "uint256",
          "name": "autoScoreBP",
          "type": "uint256"
        }
      ],
      "name": "AutoScorePosted",
      "type": "event"
    },
    {
      "anonymous": false,
      "inputs": [
        {
          "indexed": true,
          "internalType": "bytes32",
          "name": "modelId",
          "type": "bytes32"
        },
        {
          "indexed": false,
          "internalType": "uint8",
          "name": "rating",
          "type": "uint8"
        },
        {
          "indexed": false,
          "internalType": "bytes32",
          "name": "commitment",
          "type": "bytes32"
        }
      ],
      "name": "HumanFeedback",
      "type": "event"
    },
    {
      "anonymous": false,
      "inputs": [
        {
          "indexed": true,
          "internalType": "bytes32",
          "name": "role",
          "type": "bytes32"
        },
        {
          "indexed": true,
          "internalType": "bytes32",
          "name": "previousAdminRole",
          "type": "bytes32"
        },
        {
          "indexed": true,
          "internalType": "bytes32",
          "name": "newAdminRole",
          "type": "bytes32"
        }
      ],
      "name": "RoleAdminChanged",
      "type": "event"
    },
    {
      "anonymous": false,
      "inputs": [
        {
          "indexed": true,
          "internalType": "bytes32",
          "name": "role",
          "type": "bytes32"
        },
        {
          "indexed": true,
          "internalType": "address",
          "name": "account",
          "type": "address"
        },
        {
          "indexed": true,
          "internalType": "address",
          "name": "sender",
          "type": "address"
        }
      ],
      "name": "RoleGranted",
      "type": "event"
    },
    {
      "anonymous": false,
      "inputs": [
        {
          "indexed": true,
          "internalType": "bytes32",
          "name": "role",
          "type": "bytes32"
        },
        {
          "indexed": true,
          "internalType": "address",
          "name": "account",
          "type": "address"
        },
        {
          "indexed": true,
          "internalType": "address",
          "name": "sender",
          "type": "address"
        }
      ],
      "name": "RoleRevoked",
      "type": "event"
    },
    {
      "inputs": [],
      "name": "DEFAULT_ADMIN_ROLE",
      "outputs": [
        {
          "internalType": "bytes32",
          "name": "",
          "type": "bytes32"
        }
      ],
      "stateMutability": "view",
      "type": "function"
    },
    {
      "inputs": [],
      "name": "ORACLE_ROLE",
      "outputs": [
        {
          "internalType": "bytes32",
          "name": "",
          "type": "bytes32"
        }
      ],
      "stateMutability": "view",
      "type": "function"
    },
    {
      "inputs": [
        {
          "internalType": "bytes32",
          "name": "modelId",
          "type": "bytes32"
        }
      ],
      "name": "getReputationBP",
      "outputs": [
        {
          "internalType": "uint256",
          "name": "Rbp",
          "type": "uint256"
        },
        {
          "internalType": "uint256",
          "name": "humanBP",
          "type": "uint256"
        },
        {
          "internalType": "uint256",
          "name": "autoBP",
          "type": "uint256"
        }
      ],
      "stateMutability": "view",
      "type": "function"
    },
    {
      "inputs": [
        {
          "internalType": "bytes32",
          "name": "role",
          "type": "bytes32"
        }
      ],
      "name": "getRoleAdmin",
      "outputs": [
        {
          "internalType": "bytes32",
          "name": "",
          "type": "bytes32"
        }
      ],
      "stateMutability": "view",
      "type": "function"
    },
    {
      "inputs": [
        {
          "internalType": "bytes32",
          "name": "role",
          "type": "bytes32"
        },
        {
          "internalType": "address",
          "name": "account",
          "type": "address"
        }
      ],
      "name": "grantRole",
      "outputs": [],
      "stateMutability": "nonpayable",
      "type": "function"
    },
    {
      "inputs": [
        {
          "internalType": "bytes32",
          "name": "role",
          "type": "bytes32"
        },
        {
          "internalType": "address",
          "name": "account",
          "type": "address"
        }
      ],
      "name": "hasRole",
      "outputs": [
        {
          "internalType": "bool",
          "name": "",
          "type": "bool"
        }
      ],
      "stateMutability": "view",
      "type": "function"
    },
    {
      "inputs": [
        {
          "internalType": "bytes32",
          "name": "modelId",
          "type": "bytes32"
        },
        {
          "internalType": "uint256",
          "name": "autoScoreBP",
          "type": "uint256"
        }
      ],
      "name": "postAutoScore",
      "outputs": [],
      "stateMutability": "nonpayable",
      "type": "function"
    },
    {
      "inputs": [
        {
          "internalType": "bytes32",
          "name": "role",
          "type": "bytes32"
        },
        {
          "internalType": "address",
          "name": "callerConfirmation",
          "type": "address"
        }
      ],
      "name": "renounceRole",
      "outputs": [],
      "stateMutability": "nonpayable",
      "type": "function"
    },
    {
      "inputs": [
        {
          "internalType": "bytes32",
          "name": "role",
          "type": "bytes32"
        },
        {
          "internalType": "address",
          "name": "account",
          "type": "address"
        }
      ],
      "name": "revokeRole",
      "outputs": [],
      "stateMutability": "nonpayable",
      "type": "function"
    },
    {
      "inputs": [
        {
          "internalType": "bytes32",
          "name": "",
          "type": "bytes32"
        }
      ],
      "name": "stats",
      "outputs": [
        {
          "internalType": "uint256",
          "name": "humanSum",
          "type": "uint256"
        },
        {
          "internalType": "uint256",
          "name": "humanCount",
          "type": "uint256"
        },
        {
          "internalType": "uint256",
          "name": "autoScoreBP",
          "type": "uint256"
        }
      ],
      "stateMutability": "view",
      "type": "function"
    },
    {
      "inputs": [
        {
          "internalType": "bytes32",
          "name": "modelId",
          "type": "bytes32"
        },
        {
          "internalType": "uint8",
          "name": "rating",
          "type": "uint8"
        },
        {
          "internalType": "bytes32",
          "name": "commitment",
          "type": "bytes32"
        },
        {
          "internalType": "uint256[2]",
          "name": "a",
          "type": "uint256[2]"
        },
        {
          "internalType": "uint256[2][2]",
          "name": "b",
          "type": "uint256[2][2]"
        },
        {
          "internalType": "uint256[2]",
          "name": "c",
          "type": "uint256[2]"
        },
        {
          "internalType": "uint256[10]",
          "name": "input",
          "type": "uint256[10]"
        }
      ],
      "name": "submitHumanFeedbackZK",
      "outputs": [],
      "stateMutability": "nonpayable",
      "type": "function"
    },
    {
      "inputs": [
        {
          "internalType": "bytes4",
          "name": "interfaceId",
          "type": "bytes4"
        }
      ],
      "name": "supportsInterface",
      "outputs": [
        {
          "internalType": "bool",
          "name": "",
          "type": "bool"
        }
      ],
      "stateMutability": "view",
      "type": "function"
    },
    {
      "inputs": [],
      "name": "verifier",
      "outputs": [
        {
          "internalType": "contract IVerifier",
          "name": "",
          "type": "address"
        }
      ],
      "stateMutability": "view",
      "type": "function"
    }
  ],
  "bytecode": "0x60806040523480156200001157600080fd5b50604051620016f4380380620016f48339818101604052810190620000379190620002a8565b81600160006101000a81548173ffffffffffffffffffffffffffffffffffffffff021916908373ffffffffffffffffffffffffffffffffffffffff1602179055506200008d6000801b33620000c960201b60201c565b50620000c07f68e79a7bf1e0bc45d0a330c573bc367f9cf464fd326078812f301165fbda4ef182620000c960201b60201c565b505050620002ef565b6000620000dd8383620001cc60201b60201c565b620001c157600160008085815260200190815260200160002060000160008473ffffffffffffffffffffffffffffffffffffffff1673ffffffffffffffffffffffffffffffffffffffff16815260200190815260200160002060006101000a81548160ff0219169083151502179055506200015d6200023660201b60201c565b73ffffffffffffffffffffffffffffffffffffffff168273ffffffffffffffffffffffffffffffffffffffff16847f2f8788117e7eff1d82e926ec794901d17c78024a50270940304540a733656f0d60405160405180910390a460019050620001c6565b600090505b92915050565b600080600084815260200190815260200160002060000160008373ffffffffffffffffffffffffffffffffffffffff1673ffffffffffffffffffffffffffffffffffffffff16815260200190815260200160002060009054906101000a900460ff16905092915050565b600033905090565b600080fd5b600073ffffffffffffffffffffffffffffffffffffffff82169050919050565b6000620002708262000243565b9050919050565b620002828162000263565b81146200028e57600080fd5b50565b600081519050620002a28162000277565b92915050565b60008060408385031215620002c257620002c16200023e565b5b6000620002d28582860162000291565b9250506020620002e58582860162000291565b9150509250929050565b6113f580620002ff6000396000f3fe608060405234801561001057600080fd5b50600436106100cf5760003560e01c80634e9624cf1161008c578063a217fddf11610066578063a217fddf14610210578063ae97568c1461022e578063d547741f14610260578063fd438d591461027c576100cf565b80634e9624cf146101a85780637f86ea4c146101c457806391d14854146101e0576100cf565b806301ffc9a7146100d457806307e2cea514610104578063248a9ca3146101225780632b7ac3f3146101525780632f2ff15d1461017057806336568abe1461018c575b600080fd5b6100ee60048036038101906100e99190610b44565b6102ae565b6040516100fb9190610b8c565b60405180910390f35b61010c610328565b6040516101199190610bc0565b60405180910390f35b61013c60048036038101906101379190610c07565b61034c565b6040516101499190610bc0565b60405180910390f35b61015a61036b565b6040516101679190610cb3565b60405180910390f35b61018a60048036038101906101859190610d0c565b610391565b005b6101a660048036038101906101a19190610d0c565b6103b3565b005b6101c260048036038101906101bd9190610df0565b61042e565b005b6101de60048036038101906101d99190610ecb565b610614565b005b6101fa60048036038101906101f59190610d0c565b6106db565b6040516102079190610b8c565b60405180910390f35b610218610745565b6040516102259190610bc0565b60405180910390f35b61024860048036038101906102439190610c07565b61074c565b60405161025793929190610f1a565b60405180910390f35b61027a60048036038101906102759190610d0c565b610776565b005b61029660048036038101906102919190610c07565b610798565b6040516102a593929190610f1a565b60405180910390f35b60007f7965db0b000000000000000000000000000000000000000000000000000000007bffffffffffffffffffffffffffffffffffffffffffffffffffffffff1916827bffffffffffffffffffffffffffffffffffffffffffffffffffffffff1916148061032157506103208261082d565b5b9050919050565b7f68e79a7bf1e0bc45d0a330c573bc367f9cf464fd326078812f301165fbda4ef181565b6000806000838152602001908152602001600020600101549050919050565b600160009054906101000a900473ffffffffffffffffffffffffffffffffffffffff1681565b61039a8261034c565b6103a381610897565b6103ad83836108ab565b50505050565b6103bb61099c565b73ffffffffffffffffffffffffffffffffffffffff168173ffffffffffffffffffffffffffffffffffffffff161461041f576040517f6697b23200000000000000000000000000000000000000000000000000000000815260040160405180910390fd5b61042982826109a4565b505050565b600160009054906101000a900473ffffffffffffffffffffffffffffffffffffffff1673ffffffffffffffffffffffffffffffffffffffff1663e27046e1858585856040518563ffffffff1660e01b815260040161048f949392919061103a565b602060405180830381865afa1580156104ac573d6000803e3d6000fd5b505050506040513d601f19601f820116820180604052508101906104d091906110ad565b61050f576040517f08c379a000000000000000000000000000000000000000000000000000000000815260040161050690611137565b60405180910390fd5b60018660ff1610158015610527575060058660ff1611155b610566576040517f08c379a000000000000000000000000000000000000000000000000000000000815260040161055d906111a3565b60405180910390fd5b600060026000898152602001908152602001600020905060056127108860ff1661059091906111f2565b61059a9190611263565b8160000160008282546105ad9190611294565b9250508190555060018160010160008282546105c99190611294565b92505081905550877ff784bd44fb9af8efdc3a13fa57fcdd5aa4b5d6bf9f86c9e7f53cf09aed4a81bc88886040516106029291906112d7565b60405180910390a25050505050505050565b7f68e79a7bf1e0bc45d0a330c573bc367f9cf464fd326078812f301165fbda4ef161063e81610897565b612710821115610683576040517f08c379a000000000000000000000000000000000000000000000000000000000815260040161067a9061134c565b60405180910390fd5b816002600085815260200190815260200160002060020181905550827f561b1f0136f36f22040deafc3bdc3098c28070fa101bd8ab6f6f4582f10801d0836040516106ce919061136c565b60405180910390a2505050565b600080600084815260200190815260200160002060000160008373ffffffffffffffffffffffffffffffffffffffff1673ffffffffffffffffffffffffffffffffffffffff16815260200190815260200160002060009054906101000a900460ff16905092915050565b6000801b81565b60026020528060005260406000206000915090508060000154908060010154908060020154905083565b61077f8261034c565b61078881610897565b61079283836109a4565b50505050565b60008060008060026000868152602001908152602001600020905060008160010154146107d857806001015481600001546107d39190611263565b6107db565b60005b9250806002015491506000611388905060006113889050612710818561080191906111f2565b838761080d91906111f2565b6108179190611294565b6108219190611263565b95505050509193909250565b60007f01ffc9a7000000000000000000000000000000000000000000000000000000007bffffffffffffffffffffffffffffffffffffffffffffffffffffffff1916827bffffffffffffffffffffffffffffffffffffffffffffffffffffffff1916149050919050565b6108a8816108a361099c565b610a96565b50565b60006108b783836106db565b61099157600160008085815260200190815260200160002060000160008473ffffffffffffffffffffffffffffffffffffffff1673ffffffffffffffffffffffffffffffffffffffff16815260200190815260200160002060006101000a81548160ff02191690831515021790555061092e61099c565b73ffffffffffffffffffffffffffffffffffffffff168273ffffffffffffffffffffffffffffffffffffffff16847f2f8788117e7eff1d82e926ec794901d17c78024a50270940304540a733656f0d60405160405180910390a460019050610996565b600090505b92915050565b600033905090565b60006109b083836106db565b15610a8b57600080600085815260200190815260200160002060000160008473ffffffffffffffffffffffffffffffffffffffff1673ffffffffffffffffffffffffffffffffffffffff16815260200190815260200160002060006101000a81548160ff021916908315150217905550610a2861099c565b73ffffffffffffffffffffffffffffffffffffffff168273ffffffffffffffffffffffffffffffffffffffff16847ff6391f5c32d9c69d2a47ea670b442974b53935d1edc7fd64eb21e047a839171b60405160405180910390a460019050610a90565b600090505b92915050565b610aa082826106db565b610ae35780826040517fe2517d3f000000000000000000000000000000000000000000000000000000008152600401610ada929190611396565b60405180910390fd5b5050565b600080fd5b60007fffffffff0000000000000000000000000000000000000000000000000000000082169050919050565b610b2181610aec565b8114610b2c57600080fd5b50565b600081359050610b3e81610b18565b92915050565b600060208284031215610b5a57610b59610ae7565b5b6000610b6884828501610b2f565b91505092915050565b60008115159050919050565b610b8681610b71565b82525050565b6000602082019050610ba16000830184610b7d565b92915050565b6000819050919050565b610bba81610ba7565b82525050565b6000602082019050610bd56000830184610bb1565b92915050565b610be481610ba7565b8114610bef57600080fd5b50565b600081359050610c0181610bdb565b92915050565b600060208284031215610c1d57610c1c610ae7565b5b6000610c2b84828501610bf2565b91505092915050565b600073ffffffffffffffffffffffffffffffffffffffff82169050919050565b6000819050919050565b6000610c79610c74610c6f84610c34565b610c54565b610c34565b9050919050565b6000610c8b82610c5e565b9050919050565b6000610c9d82610c80565b9050919050565b610cad81610c92565b82525050565b6000602082019050610cc86000830184610ca4565b92915050565b6000610cd982610c34565b9050919050565b610ce981610cce565b8114610cf457600080fd5b50565b600081359050610d0681610ce0565b92915050565b60008060408385031215610d2357610d22610ae7565b5b6000610d3185828601610bf2565b9250506020610d4285828601610cf7565b9150509250929050565b600060ff82169050919050565b610d6281610d4c565b8114610d6d57600080fd5b50565b600081359050610d7f81610d59565b92915050565b600080fd5b600081905082602060020282011115610da657610da5610d85565b5b92915050565b600081905082604060020282011115610dc857610dc7610d85565b5b92915050565b6000819050826020600a0282011115610dea57610de9610d85565b5b92915050565b60008060008060008060006102a0888a031215610e1057610e0f610ae7565b5b6000610e1e8a828b01610bf2565b9750506020610e2f8a828b01610d70565b9650506040610e408a828b01610bf2565b9550506060610e518a828b01610d8a565b94505060a0610e628a828b01610dac565b935050610120610e748a828b01610d8a565b925050610160610e868a828b01610dce565b91505092959891949750929550565b6000819050919050565b610ea881610e95565b8114610eb357600080fd5b50565b600081359050610ec581610e9f565b92915050565b60008060408385031215610ee257610ee1610ae7565b5b6000610ef085828601610bf2565b9250506020610f0185828601610eb6565b9150509250929050565b610f1481610e95565b82525050565b6000606082019050610f2f6000830186610f0b565b610f3c6020830185610f0b565b610f496040830184610f0b565b949350505050565b82818337505050565b610f6660408383610f51565b5050565b600060029050919050565b600081905092915050565b6000819050919050565b610f9660408383610f51565b5050565b6000610fa68383610f8a565b60408301905092915050565b600082905092915050565b6000604082019050919050565b610fd381610f6a565b610fdd8184610f75565b9250610fe882610f80565b8060005b8381101561102157610ffe8284610fb2565b6110088782610f9a565b965061101383610fbd565b925050600181019050610fec565b505050505050565b6110366101408383610f51565b5050565b6000610240820190506110506000830187610f5a565b61105d6040830186610fca565b61106a60c0830185610f5a565b611078610100830184611029565b95945050505050565b61108a81610b71565b811461109557600080fd5b50565b6000815190506110a781611081565b92915050565b6000602082840312156110c3576110c2610ae7565b5b60006110d184828501611098565b91505092915050565b600082825260208201905092915050565b7f696e76616c69642070726f6f6600000000000000000000000000000000000000600082015250565b6000611121600d836110da565b915061112c826110eb565b602082019050919050565b6000602082019050818103600083015261115081611114565b9050919050565b7f726174696e6720312e2e35000000000000000000000000000000000000000000600082015250565b600061118d600b836110da565b915061119882611157565b602082019050919050565b600060208201905081810360008301526111bc81611180565b9050919050565b7f4e487b7100000000000000000000000000000000000000000000000000000000600052601160045260246000fd5b60006111fd82610e95565b915061120883610e95565b925082820261121681610e95565b9150828204841483151761122d5761122c6111c3565b5b5092915050565b7f4e487b7100000000000000000000000000000000000000000000000000000000600052601260045260246000fd5b600061126e82610e95565b915061127983610e95565b92508261128957611288611234565b5b828204905092915050565b600061129f82610e95565b91506112aa83610e95565b92508282019050808211156112c2576112c16111c3565b5b92915050565b6112d181610d4c565b82525050565b60006040820190506112ec60008301856112c8565b6112f96020830184610bb1565b9392505050565b7f6175746f53636f7265206f7574206f662072616e676500000000000000000000600082015250565b60006113366016836110da565b915061134182611300565b602082019050919050565b6000602082019050818103600083015261136581611329565b9050919050565b60006020820190506113816000830184610f0b565b92915050565b61139081610cce565b82525050565b60006040820190506113ab6000830185611387565b6113b86020830184610bb1565b939250505056fea26469706673582212208c8766b3e1a19dc05fa57fcd5f678abffcf795a78e3a75b51152d35909c41b8664736f6c63430008140033",
  "linkReferences": {},
  "deployedLinkReferences": {}
}