{
  "_format": "hh-sol-artifact-1",
  "contractName": "LLMReputation",
  "sourceName": "contracts/LLMReputation.sol",
  "abi": [
    {
      "inputs": [
        {
          "internalType": "address",
          "name": "_oracle",
          "type": "address"
        }
      ],
      "stateMutability": "nonpayable",
      "type": "constructor"
    },
    {
      "anonymous": false,
      "inputs": [
        {
          "indexed": true,
          "internalType": "uint256",
          "name": "modelId",
          "type": "uint256"
        },
        {
          "indexed": false,
          "internalType": "string",
          "name": "name",
          "type": "string"
        },
        {
          "indexed": false,
          "internalType": "address",
          "name": "owner",
          "type": "address"
        }
      ],
      "name": "ModelRegistered",
      "type": "event"
    },
    {
      "anonymous": false,
      "inputs": [
        {
          "indexed": true,
          "internalType": "address",
          "name": "newOracle",
          "type": "address"
        }
      ],
      "name": "OracleChanged",
      "type": "event"
    },
    {
      "anonymous": false,
      "inputs": [
        {
          "indexed": true,
          "internalType": "uint256",
          "name": "modelId",
          "type": "uint256"
        },
        {
          "indexed": false,
          "internalType": "uint64",
          "name": "autoScore",
          "type": "uint64"
        },
        {
          "indexed": false,
          "internalType": "uint64",
          "name": "humanScore",
          "type": "uint64"
        },
        {
          "indexed": false,
          "internalType": "uint64",
          "name": "weight",
          "type": "uint64"
        },
        {
          "indexed": false,
          "internalType": "string",
          "name": "evidenceURI",
          "type": "string"
        }
      ],
      "name": "ScoresSubmitted",
      "type": "event"
    },
    {
      "inputs": [],
      "name": "admin",
      "outputs": [
        {
          "internalType": "address",
          "name": "",
          "type": "address"
        }
      ],
      "stateMutability": "view",
      "type": "function"
    },
    {
      "inputs": [],
      "name": "decayBpsPerDay",
      "outputs": [
        {
          "internalType": "uint256",
          "name": "",
          "type": "uint256"
        }
      ],
      "stateMutability": "view",
      "type": "function"
    },
    {
      "inputs": [
        {
          "internalType": "uint256",
          "name": "",
          "type": "uint256"
        }
      ],
      "name": "models",
      "outputs": [
        {
          "internalType": "string",
          "name": "name",
          "type": "string"
        },
        {
          "internalType": "address",
          "name": "owner",
          "type": "address"
        },
        {
          "internalType": "bool",
          "name": "exists",
          "type": "bool"
        }
      ],
      "stateMutability": "view",
      "type": "function"
    },
    {
      "inputs": [],
      "name": "oracle",
      "outputs": [
        {
          "internalType": "address",
          "name": "",
          "type": "address"
        }
      ],
      "stateMutability": "view",
      "type": "function"
    },
    {
      "inputs": [
        {
          "internalType": "uint256",
          "name": "modelId",
          "type": "uint256"
        }
      ],
      "name": "rawScores",
      "outputs": [
        {
          "components": [
            {
              "internalType": "uint64",
              "name": "autoScore",
              "type": "uint64"
            },
            {
              "internalType": "uint64",
              "name": "humanScore",
              "type": "uint64"
            },
            {
              "internalType": "uint64",
              "name": "weight",
              "type": "uint64"
            },
            {
              "internalType": "uint256",
              "name": "lastUpdated",
              "type": "uint256"
            },
            {
              "internalType": "string",
              "name": "evidenceURI",
              "type": "string"
            }
          ],
          "internalType": "struct LLMReputation.Scores",
          "name": "",
          "type": "tuple"
        }
      ],
      "stateMutability": "view",
      "type": "function"
    },
    {
      "inputs": [
        {
          "internalType": "uint256",
          "name": "modelId",
          "type": "uint256"
        },
        {
          "internalType": "string",
          "name": "name",
          "type": "string"
        },
        {
          "internalType": "address",
          "name": "owner",
          "type": "address"
        }
      ],
      "name": "registerModel",
      "outputs": [],
      "stateMutability": "nonpayable",
      "type": "function"
    },
    {
      "inputs": [
        {
          "internalType": "uint256",
          "name": "modelId",
          "type": "uint256"
        }
      ],
      "name": "reputation",
      "outputs": [
        {
          "internalType": "uint256",
          "name": "rep",
          "type": "uint256"
        }
      ],
      "stateMutability": "view",
      "type": "function"
    },
    {
      "inputs": [
        {
          "internalType": "uint256",
          "name": "",
          "type": "uint256"
        }
      ],
      "name": "scores",
      "outputs": [
        {
          "internalType": "uint64",
          "name": "autoScore",
          "type": "uint64"
        },
        {
          "internalType": "uint64",
          "name": "humanScore",
          "type": "uint64"
        },
        {
          "internalType": "uint64",
          "name": "weight",
          "type": "uint64"
        },
        {
          "internalType": "uint256",
          "name": "lastUpdated",
          "type": "uint256"
        },
        {
          "internalType": "string",
          "name": "evidenceURI",
          "type": "string"
        }
      ],
      "stateMutability": "view",
      "type": "function"
    },
    {
      "inputs": [
        {
          "internalType": "uint256",
          "name": "bps",
          "type": "uint256"
        }
      ],
      "name": "setDecayBpsPerDay",
      "outputs": [],
      "stateMutability": "nonpayable",
      "type": "function"
    },
    {
      "inputs": [
        {
          "internalType": "address",
          "name": "_oracle",
          "type": "address"
        }
      ],
      "name": "setOracle",
      "outputs": [],
      "stateMutability": "nonpayable",
      "type": "function"
    },
    {
      "inputs": [
        {
          "internalType": "uint256",
          "name": "modelId",
          "type": "uint256"
        },
        {
          "internalType": "uint64",
          "name": "autoScore",
          "type": "uint64"
        },
        {
          "internalType": "uint64",
          "name": "humanScore",
          "type": "uint64"
        },
        {
          "internalType": "uint64",
          "name": "weight",
          "type": "uint64"
        },
        {
          "internalType": "string",
          "name": "evidenceURI",
          "type": "string"
        }
      ],
      "name": "submitScores",
      "outputs": [],
      "stateMutability": "nonpayable",
      "type": "function"
    }
  ],
  "bytecode": "0x608060405260326002553480156200001657600080fd5b5060405162001dee38038062001dee83398181016040528101906200003c91906200012e565b336000806101000a81548173ffffffffffffffffffffffffffffffffffffffff021916908373ffffffffffffffffffffffffffffffffffffffff16021790555080600160006101000a81548173ffffffffffffffffffffffffffffffffffffffff021916908373ffffffffffffffffffffffffffffffffffffffff1602179055505062000160565b600080fd5b600073ffffffffffffffffffffffffffffffffffffffff82169050919050565b6000620000f682620000c9565b9050919050565b6200010881620000e9565b81146200011457600080fd5b50565b6000815190506200012881620000fd565b92915050565b600060208284031215620001475762000146620000c4565b5b6000620001578482850162000117565b91505092915050565b611c7e80620001706000396000f3fe608060405234801561001057600080fd5b50600436106100a95760003560e01c80636a50b1b7116100715780636a50b1b7146101905780637adbf973146101ae5780637dc0d1d0146101ca5780638640bf08146101e85780639659d5ae14610204578063f851a44014610220576100a9565b8063043a6420146100ae5780632ee691a3146100de5780632f16b1571461011257806356c708d51461012e5780636a030ca91461015e575b600080fd5b6100c860048036038101906100c39190610fad565b61023e565b6040516100d59190611112565b60405180910390f35b6100f860048036038101906100f39190610fad565b61039d565b60405161010995949392919061119c565b60405180910390f35b61012c60048036038101906101279190610fad565b610497565b005b61014860048036038101906101439190610fad565b610574565b60405161015591906111f6565b60405180910390f35b61017860048036038101906101739190610fad565b6107b1565b6040516101879392919061126d565b60405180910390f35b610198610890565b6040516101a591906111f6565b60405180910390f35b6101c860048036038101906101c391906112d7565b610896565b005b6101d26109ab565b6040516101df9190611304565b60405180910390f35b61020260048036038101906101fd91906113b0565b6109d1565b005b61021e6004803603810190610219919061144a565b610cbd565b005b610228610efc565b6040516102359190611304565b60405180910390f35b610246610f20565b600460008381526020019081526020016000206040518060a00160405290816000820160009054906101000a900467ffffffffffffffff1667ffffffffffffffff1667ffffffffffffffff1681526020016000820160089054906101000a900467ffffffffffffffff1667ffffffffffffffff1667ffffffffffffffff1681526020016000820160109054906101000a900467ffffffffffffffff1667ffffffffffffffff1667ffffffffffffffff16815260200160018201548152602001600282018054610314906114ed565b80601f0160208091040260200160405190810160405280929190818152602001828054610340906114ed565b801561038d5780601f106103625761010080835404028352916020019161038d565b820191906000526020600020905b81548152906001019060200180831161037057829003601f168201915b5050505050815250509050919050565b60046020528060005260406000206000915090508060000160009054906101000a900467ffffffffffffffff16908060000160089054906101000a900467ffffffffffffffff16908060000160109054906101000a900467ffffffffffffffff1690806001015490806002018054610414906114ed565b80601f0160208091040260200160405190810160405280929190818152602001828054610440906114ed565b801561048d5780601f106104625761010080835404028352916020019161048d565b820191906000526020600020905b81548152906001019060200180831161047057829003601f168201915b5050505050905085565b60008054906101000a900473ffffffffffffffffffffffffffffffffffffffff1673ffffffffffffffffffffffffffffffffffffffff163373ffffffffffffffffffffffffffffffffffffffff1614610525576040517f08c379a000000000000000000000000000000000000000000000000000000000815260040161051c9061156a565b60405180910390fd5b61271081111561056a576040517f08c379a0000000000000000000000000000000000000000000000000000000008152600401610561906115d6565b60405180910390fd5b8060028190555050565b600080600460008481526020019081526020016000206040518060a00160405290816000820160009054906101000a900467ffffffffffffffff1667ffffffffffffffff1667ffffffffffffffff1681526020016000820160089054906101000a900467ffffffffffffffff1667ffffffffffffffff1667ffffffffffffffff1681526020016000820160109054906101000a900467ffffffffffffffff1667ffffffffffffffff1667ffffffffffffffff16815260200160018201548152602001600282018054610645906114ed565b80601f0160208091040260200160405190810160405280929190818152602001828054610671906114ed565b80156106be5780601f10610693576101008083540402835291602001916106be565b820191906000526020600020905b8154815290600101906020018083116106a157829003601f168201915b505050505081525050905060008160600151036106df5760009150506107ac565b60006064601e836020015167ffffffffffffffff166106fe9190611625565b6046846000015167ffffffffffffffff166107199190611625565b6107239190611667565b61072d91906116ca565b905060006201518083606001514261074591906116fb565b61074f91906116ca565b90506000600254826107619190611625565b905061271081106107795760009450505050506107ac565b60006127108261271061078c91906116fb565b856107979190611625565b6107a191906116ca565b905080955050505050505b919050565b60036020528060005260406000206000915090508060000180546107d4906114ed565b80601f0160208091040260200160405190810160405280929190818152602001828054610800906114ed565b801561084d5780601f106108225761010080835404028352916020019161084d565b820191906000526020600020905b81548152906001019060200180831161083057829003601f168201915b5050505050908060010160009054906101000a900473ffffffffffffffffffffffffffffffffffffffff16908060010160149054906101000a900460ff16905083565b60025481565b60008054906101000a900473ffffffffffffffffffffffffffffffffffffffff1673ffffffffffffffffffffffffffffffffffffffff163373ffffffffffffffffffffffffffffffffffffffff1614610924576040517f08c379a000000000000000000000000000000000000000000000000000000000815260040161091b9061156a565b60405180910390fd5b80600160006101000a81548173ffffffffffffffffffffffffffffffffffffffff021916908373ffffffffffffffffffffffffffffffffffffffff1602179055508073ffffffffffffffffffffffffffffffffffffffff167f0e05ae75e8b926552cf6fcd744d19f422561e3ced1e426868730852702dbe41860405160405180910390a250565b600160009054906101000a900473ffffffffffffffffffffffffffffffffffffffff1681565b600160009054906101000a900473ffffffffffffffffffffffffffffffffffffffff1673ffffffffffffffffffffffffffffffffffffffff163373ffffffffffffffffffffffffffffffffffffffff1614610a61576040517f08c379a0000000000000000000000000000000000000000000000000000000008152600401610a589061177b565b60405180910390fd5b6003600087815260200190815260200160002060010160149054906101000a900460ff16610ac4576040517f08c379a0000000000000000000000000000000000000000000000000000000008152600401610abb906117e7565b60405180910390fd5b60648567ffffffffffffffff1611158015610aea575060648467ffffffffffffffff1611155b610b29576040517f08c379a0000000000000000000000000000000000000000000000000000000008152600401610b2090611853565b60405180910390fd5b6040518060a001604052808667ffffffffffffffff1681526020018567ffffffffffffffff1681526020018467ffffffffffffffff16815260200142815260200183838080601f016020809104026020016040519081016040528093929190818152602001838380828437600081840152601f19601f820116905080830192505050505050508152506004600088815260200190815260200160002060008201518160000160006101000a81548167ffffffffffffffff021916908367ffffffffffffffff16021790555060208201518160000160086101000a81548167ffffffffffffffff021916908367ffffffffffffffff16021790555060408201518160000160106101000a81548167ffffffffffffffff021916908367ffffffffffffffff160217905550606082015181600101556080820151816002019081610c719190611a4e565b50905050857fc75ca69b4a538dafd753b2cc92e6061c933d1e702becbf14b665de94fcb0a46a8686868686604051610cad959493929190611b5c565b60405180910390a2505050505050565b60008054906101000a900473ffffffffffffffffffffffffffffffffffffffff1673ffffffffffffffffffffffffffffffffffffffff163373ffffffffffffffffffffffffffffffffffffffff1614610d4b576040517f08c379a0000000000000000000000000000000000000000000000000000000008152600401610d429061156a565b60405180910390fd5b6003600085815260200190815260200160002060010160149054906101000a900460ff1615610daf576040517f08c379a0000000000000000000000000000000000000000000000000000000008152600401610da690611bf6565b60405180910390fd5b604051806060016040528084848080601f016020809104026020016040519081016040528093929190818152602001838380828437600081840152601f19601f8201169050808301925050505050505081526020018273ffffffffffffffffffffffffffffffffffffffff16815260200160011515815250600360008681526020019081526020016000206000820151816000019081610e4f9190611a4e565b5060208201518160010160006101000a81548173ffffffffffffffffffffffffffffffffffffffff021916908373ffffffffffffffffffffffffffffffffffffffff16021790555060408201518160010160146101000a81548160ff021916908315150217905550905050837f686fbf88c07f37a2e64df9c38cac406fbca9f2bcc953170e42f594281ea5d727848484604051610eee93929190611c16565b60405180910390a250505050565b60008054906101000a900473ffffffffffffffffffffffffffffffffffffffff1681565b6040518060a00160405280600067ffffffffffffffff168152602001600067ffffffffffffffff168152602001600067ffffffffffffffff16815260200160008152602001606081525090565b600080fd5b600080fd5b6000819050919050565b610f8a81610f77565b8114610f9557600080fd5b50565b600081359050610fa781610f81565b92915050565b600060208284031215610fc357610fc2610f6d565b5b6000610fd184828501610f98565b91505092915050565b600067ffffffffffffffff82169050919050565b610ff781610fda565b82525050565b61100681610f77565b82525050565b600081519050919050565b600082825260208201905092915050565b60005b8381101561104657808201518184015260208101905061102b565b60008484015250505050565b6000601f19601f8301169050919050565b600061106e8261100c565b6110788185611017565b9350611088818560208601611028565b61109181611052565b840191505092915050565b600060a0830160008301516110b46000860182610fee565b5060208301516110c76020860182610fee565b5060408301516110da6040860182610fee565b5060608301516110ed6060860182610ffd565b50608083015184820360808601526111058282611063565b9150508091505092915050565b6000602082019050818103600083015261112c818461109c565b905092915050565b61113d81610fda565b82525050565b61114c81610f77565b82525050565b600082825260208201905092915050565b600061116e8261100c565b6111788185611152565b9350611188818560208601611028565b61119181611052565b840191505092915050565b600060a0820190506111b16000830188611134565b6111be6020830187611134565b6111cb6040830186611134565b6111d86060830185611143565b81810360808301526111ea8184611163565b90509695505050505050565b600060208201905061120b6000830184611143565b92915050565b600073ffffffffffffffffffffffffffffffffffffffff82169050919050565b600061123c82611211565b9050919050565b61124c81611231565b82525050565b60008115159050919050565b61126781611252565b82525050565b600060608201905081810360008301526112878186611163565b90506112966020830185611243565b6112a3604083018461125e565b949350505050565b6112b481611231565b81146112bf57600080fd5b50565b6000813590506112d1816112ab565b92915050565b6000602082840312156112ed576112ec610f6d565b5b60006112fb848285016112c2565b91505092915050565b60006020820190506113196000830184611243565b92915050565b61132881610fda565b811461133357600080fd5b50565b6000813590506113458161131f565b92915050565b600080fd5b600080fd5b600080fd5b60008083601f8401126113705761136f61134b565b5b8235905067ffffffffffffffff81111561138d5761138c611350565b5b6020830191508360018202830111156113a9576113a8611355565b5b9250929050565b60008060008060008060a087890312156113cd576113cc610f6d565b5b60006113db89828a01610f98565b96505060206113ec89828a01611336565b95505060406113fd89828a01611336565b945050606061140e89828a01611336565b935050608087013567ffffffffffffffff81111561142f5761142e610f72565b5b61143b89828a0161135a565b92509250509295509295509295565b6000806000806060858703121561146457611463610f6d565b5b600061147287828801610f98565b945050602085013567ffffffffffffffff81111561149357611492610f72565b5b61149f8782880161135a565b935093505060406114b2878288016112c2565b91505092959194509250565b7f4e487b7100000000000000000000000000000000000000000000000000000000600052602260045260246000fd5b6000600282049050600182168061150557607f821691505b602082108103611518576115176114be565b5b50919050565b7f6e6f742061646d696e0000000000000000000000000000000000000000000000600082015250565b6000611554600983611152565b915061155f8261151e565b602082019050919050565b6000602082019050818103600083015261158381611547565b9050919050565b7f746f6f2068696768000000000000000000000000000000000000000000000000600082015250565b60006115c0600883611152565b91506115cb8261158a565b602082019050919050565b600060208201905081810360008301526115ef816115b3565b9050919050565b7f4e487b7100000000000000000000000000000000000000000000000000000000600052601160045260246000fd5b600061163082610f77565b915061163b83610f77565b925082820261164981610f77565b915082820484148315176116605761165f6115f6565b5b5092915050565b600061167282610f77565b915061167d83610f77565b9250828201905080821115611695576116946115f6565b5b92915050565b7f4e487b7100000000000000000000000000000000000000000000000000000000600052601260045260246000fd5b60006116d582610f77565b91506116e083610f77565b9250826116f0576116ef61169b565b5b828204905092915050565b600061170682610f77565b915061171183610f77565b9250828203905081811115611729576117286115f6565b5b92915050565b7f6e6f74206f7261636c6500000000000000000000000000000000000000000000600082015250565b6000611765600a83611152565b91506117708261172f565b602082019050919050565b6000602082019050818103600083015261179481611758565b9050919050565b7f756e6b6e6f776e206d6f64656c00000000000000000000000000000000000000600082015250565b60006117d1600d83611152565b91506117dc8261179b565b602082019050919050565b60006020820190508181036000830152611800816117c4565b9050919050565b7f73636f7265206f7574206f662072616e67650000000000000000000000000000600082015250565b600061183d601283611152565b915061184882611807565b602082019050919050565b6000602082019050818103600083015261186c81611830565b9050919050565b7f4e487b7100000000000000000000000000000000000000000000000000000000600052604160045260246000fd5b60008190508160005260206000209050919050565b60006020601f8301049050919050565b600082821b905092915050565b6000600883026119047fffffffffffffffffffffffffffffffffffffffffffffffffffffffffffffffff826118c7565b61190e86836118c7565b95508019841693508086168417925050509392505050565b6000819050919050565b600061194b61194661194184610f77565b611926565b610f77565b9050919050565b6000819050919050565b61196583611930565b61197961197182611952565b8484546118d4565b825550505050565b600090565b61198e611981565b61199981848461195c565b505050565b5b818110156119bd576119b2600082611986565b60018101905061199f565b5050565b601f821115611a02576119d3816118a2565b6119dc846118b7565b810160208510156119eb578190505b6119ff6119f7856118b7565b83018261199e565b50505b505050565b600082821c905092915050565b6000611a2560001984600802611a07565b1980831691505092915050565b6000611a3e8383611a14565b9150826002028217905092915050565b611a578261100c565b67ffffffffffffffff811115611a7057611a6f611873565b5b611a7a82546114ed565b611a858282856119c1565b600060209050601f831160018114611ab85760008415611aa6578287015190505b611ab08582611a32565b865550611b18565b601f198416611ac6866118a2565b60005b82811015611aee57848901518255600182019150602085019450602081019050611ac9565b86831015611b0b5784890151611b07601f891682611a14565b8355505b6001600288020188555050505b505050505050565b82818337600083830152505050565b6000611b3b8385611152565b9350611b48838584611b20565b611b5183611052565b840190509392505050565b6000608082019050611b716000830188611134565b611b7e6020830187611134565b611b8b6040830186611134565b8181036060830152611b9e818486611b2f565b90509695505050505050565b7f6578697374730000000000000000000000000000000000000000000000000000600082015250565b6000611be0600683611152565b9150611beb82611baa565b602082019050919050565b60006020820190508181036000830152611c0f81611bd3565b9050919050565b60006040820190508181036000830152611c31818587611b2f565b9050611c406020830184611243565b94935050505056fea264697066735822122026cc49e673ab9a7f571fac6eacc1f5947c7b405e5c96fd907998de93d79d4f6964736f6c63430008140033",
  "linkReferences": {},
  "deployedLinkReferences": {}
}