{
  "_format": "hh-sol-artifact-1",
  "contractName": "ReputationBasic",
  "sourceName": "contracts/ReputationBasic.sol",
  "abi": [
    {
      "anonymous": false,
      "inputs": [
        {
          "indexed": true,
          "internalType": "address",
          "name": "model",
          "type": "address"
        },
        {
          "indexed": true,
          "internalType": "address",
          "name": "user",
          "type": "address"
        },
        {
          "indexed": false,
          "internalType": "uint256",
          "name": "score",
          "type": "uint256"
        }
      ],
      "name": "FeedbackSubmitted",
      "type": "event"
    },
    {
      "inputs": [
        {
          "internalType": "address",
          "name": "",
          "type": "address"
        }
      ],
      "name": "feedbackCount",
      "outputs": [
        {
          "internalType": "uint256",
          "name": "",
          "type": "uint256"
        }
      ],
      "stateMutability": "view",
      "type": "function"
    },
    {
      "inputs": [
        {
          "internalType": "address",
          "name": "",
          "type": "address"
        },
        {
          "internalType": "uint256",
          "name": "",
          "type": "uint256"
        }
      ],
      "name": "feedbacks",
      "outputs": [
        {
          "internalType": "uint256",
          "name": "score",
          "type": "uint256"
        },
        {
          "internalType": "address",
          "name": "user",
          "type": "address"
        },
        {
          "internalType": "uint256",
          "name": "timestamp",
          "type": "uint256"
        }
      ],
      "stateMutability": "view",
      "type": "function"
    },
    {
      "inputs": [
        {
          "internalType": "address",
          "name": "model",
          "type": "address"
        }
      ],
      "name": "getAverage",
      "outputs": [
        {
          "internalType": "uint256",
          "name": "avgTimes100",
          "type": "uint256"
        }
      ],
      "stateMutability": "view",
      "type": "function"
    },
    {
      "inputs": [
        {
          "internalType": "address",
          "name": "",
          "type": "address"
        }
      ],
      "name": "reputationSum",
      "outputs": [
        {
          "internalType": "uint256",
          "name": "",
          "type": "uint256"
        }
      ],
      "stateMutability": "view",
      "type": "function"
    },
    {
      "inputs": [
        {
          "internalType": "address",
          "name": "model",
          "type": "address"
        },
        {
          "internalType": "uint256",
          "name": "score",
          "type": "uint256"
        }
      ],
      "name": "submitFeedback",
      "outputs": [],
      "stateMutability": "nonpayable",
      "type": "function"
    }
  ],
  "bytecode": "0x608060405234801561001057600080fd5b50610803806100206000396000f3fe608060405234801561001057600080fd5b50600436106100575760003560e01c80638c6529c11461005c578063902205f01461008e578063ce427bff146100aa578063d216176e146100da578063da1b3fe21461010a575b600080fd5b6100766004803603810190610071919061056e565b61013a565b604051610085939291906105cc565b60405180910390f35b6100a860048036038101906100a3919061056e565b6101a1565b005b6100c460048036038101906100bf9190610603565b6103ef565b6040516100d19190610630565b60405180910390f35b6100f460048036038101906100ef9190610603565b6104a5565b6040516101019190610630565b60405180910390f35b610124600480360381019061011f9190610603565b6104bd565b6040516101319190610630565b60405180910390f35b6002602052816000526040600020818154811061015657600080fd5b9060005260206000209060030201600091509150508060000154908060010160009054906101000a900473ffffffffffffffffffffffffffffffffffffffff16908060020154905083565b60648111156101e5576040517f08c379a00000000000000000000000000000000000000000000000000000000081526004016101dc906106a8565b60405180910390fd5b600260008373ffffffffffffffffffffffffffffffffffffffff1673ffffffffffffffffffffffffffffffffffffffff16815260200190815260200160002060405180606001604052808381526020013373ffffffffffffffffffffffffffffffffffffffff1681526020014281525090806001815401808255809150506001900390600052602060002090600302016000909190919091506000820151816000015560208201518160010160006101000a81548173ffffffffffffffffffffffffffffffffffffffff021916908373ffffffffffffffffffffffffffffffffffffffff160217905550604082015181600201555050806000808473ffffffffffffffffffffffffffffffffffffffff1673ffffffffffffffffffffffffffffffffffffffff168152602001908152602001600020600082825461032991906106f7565b9250508190555060018060008473ffffffffffffffffffffffffffffffffffffffff1673ffffffffffffffffffffffffffffffffffffffff168152602001908152602001600020600082825461037f91906106f7565b925050819055503373ffffffffffffffffffffffffffffffffffffffff168273ffffffffffffffffffffffffffffffffffffffff167fe05f16f280c4b695e5f4cac026c5cbf6f0115d82d183abeed61436dde8b5da1d836040516103e39190610630565b60405180910390a35050565b600080600160008473ffffffffffffffffffffffffffffffffffffffff1673ffffffffffffffffffffffffffffffffffffffff168152602001908152602001600020549050600081036104465760009150506104a0565b8060646000808673ffffffffffffffffffffffffffffffffffffffff1673ffffffffffffffffffffffffffffffffffffffff16815260200190815260200160002054610492919061072b565b61049c919061079c565b9150505b919050565b60006020528060005260406000206000915090505481565b60016020528060005260406000206000915090505481565b600080fd5b600073ffffffffffffffffffffffffffffffffffffffff82169050919050565b6000610505826104da565b9050919050565b610515816104fa565b811461052057600080fd5b50565b6000813590506105328161050c565b92915050565b6000819050919050565b61054b81610538565b811461055657600080fd5b50565b60008135905061056881610542565b92915050565b60008060408385031215610585576105846104d5565b5b600061059385828601610523565b92505060206105a485828601610559565b9150509250929050565b6105b781610538565b82525050565b6105c6816104fa565b82525050565b60006060820190506105e160008301866105ae565b6105ee60208301856105bd565b6105fb60408301846105ae565b949350505050565b600060208284031215610619576106186104d5565b5b600061062784828501610523565b91505092915050565b600060208201905061064560008301846105ae565b92915050565b600082825260208201905092915050565b7f53636f7265206d75737420626520302e2e313030000000000000000000000000600082015250565b600061069260148361064b565b915061069d8261065c565b602082019050919050565b600060208201905081810360008301526106c181610685565b9050919050565b7f4e487b7100000000000000000000000000000000000000000000000000000000600052601160045260246000fd5b600061070282610538565b915061070d83610538565b9250828201905080821115610725576107246106c8565b5b92915050565b600061073682610538565b915061074183610538565b925082820261074f81610538565b91508282048414831517610766576107656106c8565b5b5092915050565b7f4e487b7100000000000000000000000000000000000000000000000000000000600052601260045260246000fd5b60006107a782610538565b91506107b283610538565b9250826107c2576107c161076d565b5b82820490509291505056fea2646970667358221220a524b755b9a05a4be18ba51e63a1408b9228918f4980dc8a844faff780137c9c64736f6c63430008140033",
  "linkReferences": {},
  "deployedLinkReferences": {}
}