{
  "contractName": "MockVerifier",
  "abi": [
    {
      "inputs": [
        {
          "components": [
            {
              "components": [
                {
                  "internalType": "uint256",
                  "name": "X",
                  "type": "uint256"
                },
                {
                  "internalType": "uint256",
                  "name": "Y",
                  "type": "uint256"
                }
              ],
              "internalType": "struct IVerifier.G1Point",
              "name": "A",
              "type": "tuple"
            },
            {
              "components": [
                {
                  "internalType": "uint256[2]",
                  "name": "X",
                  "type": "uint256[2]"
                },
                {
                  "internalType": "uint256[2]",
                  "name": "Y",
                  "type": "uint256[2]"
                }
              ],
              "internalType": "struct IVerifier.G2Point",
              "name": "B",
              "type": "tuple"
            },
            {
              "components": [
                {
                  "internalType": "uint256",
                  "name": "X",
                  "type": "uint256"
                },
                {
                  "internalType": "uint256",
                  "name": "Y",
                  "type": "uint256"
                }
              ],
              "internalType": "struct IVerifier.G1Point",
              "name": "C",
              "type": "tuple"
            }
          ],
          "internalType": "struct IVerifier.Proof",
          "name": "",
          "type": "tuple"
        },
        {
          "internalType": "uint256[10]",
          "name": "",
          "type": "uint256[10]"
        }
      ],
      "name": "verifyTx",
      "outputs": [
        {
          "internalType": "bool",
          "name": "",
          "type": "bool"
        }
      ],
      "stateMutability": "pure",
      "type": "function"
    }
  ],
  "bytecode": "0x608060405234801561000f575f80fd5b5061015d8061001d5f395ff3fe608060405234801561000f575f80fd5b5060043610610029575f3560e01c806311bfe45a1461002d575b5f80fd5b610047600480360381019061004291906100b4565b61005d565b604051610054919061010e565b60405180910390f35b5f6001905092915050565b5f80fd5b5f80fd5b5f61010082840312156100865761008561006c565b5b81905092915050565b5f80fd5b5f819050826020600a02820111156100ae576100ad61008f565b5b92915050565b5f8061024083850312156100cb576100ca610068565b5b5f6100d885828601610070565b9250506101006100ea85828601610093565b9150509250929050565b5f8115159050919050565b610108816100f4565b82525050565b5f6020820190506101215f8301846100ff565b9291505056fea26469706673582212208e814e6f758bb201650ef03f014da9ab66233cd6183acec82372cf465507174364736f6c63430008140033",
  "immutableReferences": {},
  "source": "// SPDX-License-Identifier: MIT\npragma solidity ^0.8.20;\n\nimport \"./IVerifier.sol\";\n\ncontract MockVerifier is IVerifier {\n    function verifyTx(Proof calldata /*proof*/, uint256[10] calldata /*input*/) external pure returns (bool) {\n        return true; // accept any proof for Phase 1 wiring\n    }\n}\n",
  "sourcePath": "/home/sk02352/zktrustllm-phase1/contracts/MockVerifier.sol",
  "compiler": {
    "name": "solc",
    "version": "0.8.20+commit.a1b79de6.Emscripten.clang"
  },
  "schemaVersion": "3.4.16",
  "updatedAt": "2025-09-02T10:43:41.261Z",
  "devdoc": {
    "kind": "dev",
    "methods": {},
    "version": 1
  },
  "userdoc": {
    "kind": "user",
    "methods": {},
    "version": 1
  }
}