{
  "contractName": "ReputationBasic",
  "abi": [
    {
      "anonymous": false,
      "inputs": [
        {
          "indexed": true,
          "internalType": "address",
          "name": "model",
          "type": "address"
        },
        {
          "indexed": true,
          "internalType": "address",
          "name": "user",
          "type": "address"
        },
        {
          "indexed": false,
          "internalType": "uint256",
          "name": "score",
          "type": "uint256"
        }
      ],
      "name": "FeedbackSubmitted",
      "type": "event"
    },
    {
      "inputs": [
        {
          "internalType": "address",
          "name": "",
          "type": "address"
        }
      ],
      "name": "feedbackCount",
      "outputs": [
        {
          "internalType": "uint256",
          "name": "",
          "type": "uint256"
        }
      ],
      "stateMutability": "view",
      "type": "function",
      "constant": true
    },
    {
      "inputs": [
        {
          "internalType": "address",
          "name": "",
          "type": "address"
        },
        {
          "internalType": "uint256",
          "name": "",
          "type": "uint256"
        }
      ],
      "name": "feedbacks",
      "outputs": [
        {
          "internalType": "uint256",
          "name": "score",
          "type": "uint256"
        },
        {
          "internalType": "address",
          "name": "user",
          "type": "address"
        },
        {
          "internalType": "uint256",
          "name": "timestamp",
          "type": "uint256"
        }
      ],
      "stateMutability": "view",
      "type": "function",
      "constant": true
    },
    {
      "inputs": [
        {
          "internalType": "address",
          "name": "",
          "type": "address"
        }
      ],
      "name": "reputationSum",
      "outputs": [
        {
          "internalType": "uint256",
          "name": "",
          "type": "uint256"
        }
      ],
      "stateMutability": "view",
      "type": "function",
      "constant": true
    },
    {
      "inputs": [
        {
          "internalType": "address",
          "name": "model",
          "type": "address"
        },
        {
          "internalType": "uint256",
          "name": "score",
          "type": "uint256"
        }
      ],
      "name": "submitFeedback",
      "outputs": [],
      "stateMutability": "nonpayable",
      "type": "function"
    },
    {
      "inputs": [
        {
          "internalType": "address",
          "name": "model",
          "type": "address"
        }
      ],
      "name": "getAverage",
      "outputs": [
        {
          "internalType": "uint256",
          "name": "avgTimes100",
          "type": "uint256"
        }
      ],
      "stateMutability": "view",
      "type": "function",
      "constant": true
    }
  ],
  "bytecode": "0x608060405234801561000f575f80fd5b506107c08061001d5f395ff3fe608060405234801561000f575f80fd5b5060043610610055575f3560e01c80638c6529c114610059578063902205f01461008b578063ce427bff146100a7578063d216176e146100d7578063da1b3fe214610107575b5f80fd5b610073600480360381019061006e919061053f565b610137565b6040516100829392919061059b565b60405180910390f35b6100a560048036038101906100a0919061053f565b610196565b005b6100c160048036038101906100bc91906105d0565b6103d6565b6040516100ce91906105fb565b60405180910390f35b6100f160048036038101906100ec91906105d0565b610485565b6040516100fe91906105fb565b60405180910390f35b610121600480360381019061011c91906105d0565b610499565b60405161012e91906105fb565b60405180910390f35b6002602052815f5260405f208181548110610150575f80fd5b905f5260205f2090600302015f9150915050805f015490806001015f9054906101000a900473ffffffffffffffffffffffffffffffffffffffff16908060020154905083565b60648111156101da576040517f08c379a00000000000000000000000000000000000000000000000000000000081526004016101d19061066e565b60405180910390fd5b60025f8373ffffffffffffffffffffffffffffffffffffffff1673ffffffffffffffffffffffffffffffffffffffff1681526020019081526020015f2060405180606001604052808381526020013373ffffffffffffffffffffffffffffffffffffffff16815260200142815250908060018154018082558091505060019003905f5260205f2090600302015f909190919091505f820151815f01556020820151816001015f6101000a81548173ffffffffffffffffffffffffffffffffffffffff021916908373ffffffffffffffffffffffffffffffffffffffff160217905550604082015181600201555050805f808473ffffffffffffffffffffffffffffffffffffffff1673ffffffffffffffffffffffffffffffffffffffff1681526020019081526020015f205f82825461031391906106b9565b925050819055506001805f8473ffffffffffffffffffffffffffffffffffffffff1673ffffffffffffffffffffffffffffffffffffffff1681526020019081526020015f205f82825461036691906106b9565b925050819055503373ffffffffffffffffffffffffffffffffffffffff168273ffffffffffffffffffffffffffffffffffffffff167fe05f16f280c4b695e5f4cac026c5cbf6f0115d82d183abeed61436dde8b5da1d836040516103ca91906105fb565b60405180910390a35050565b5f8060015f8473ffffffffffffffffffffffffffffffffffffffff1673ffffffffffffffffffffffffffffffffffffffff1681526020019081526020015f205490505f8103610428575f915050610480565b8060645f808673ffffffffffffffffffffffffffffffffffffffff1673ffffffffffffffffffffffffffffffffffffffff1681526020019081526020015f205461047291906106ec565b61047c919061075a565b9150505b919050565b5f602052805f5260405f205f915090505481565b6001602052805f5260405f205f915090505481565b5f80fd5b5f73ffffffffffffffffffffffffffffffffffffffff82169050919050565b5f6104db826104b2565b9050919050565b6104eb816104d1565b81146104f5575f80fd5b50565b5f81359050610506816104e2565b92915050565b5f819050919050565b61051e8161050c565b8114610528575f80fd5b50565b5f8135905061053981610515565b92915050565b5f8060408385031215610555576105546104ae565b5b5f610562858286016104f8565b92505060206105738582860161052b565b9150509250929050565b6105868161050c565b82525050565b610595816104d1565b82525050565b5f6060820190506105ae5f83018661057d565b6105bb602083018561058c565b6105c8604083018461057d565b949350505050565b5f602082840312156105e5576105e46104ae565b5b5f6105f2848285016104f8565b91505092915050565b5f60208201905061060e5f83018461057d565b92915050565b5f82825260208201905092915050565b7f53636f7265206d75737420626520302e2e3130300000000000000000000000005f82015250565b5f610658601483610614565b915061066382610624565b602082019050919050565b5f6020820190508181035f8301526106858161064c565b9050919050565b7f4e487b71000000000000000000000000000000000000000000000000000000005f52601160045260245ffd5b5f6106c38261050c565b91506106ce8361050c565b92508282019050808211156106e6576106e561068c565b5b92915050565b5f6106f68261050c565b91506107018361050c565b925082820261070f8161050c565b915082820484148315176107265761072561068c565b5b5092915050565b7f4e487b71000000000000000000000000000000000000000000000000000000005f52601260045260245ffd5b5f6107648261050c565b915061076f8361050c565b92508261077f5761077e61072d565b5b82820490509291505056fea26469706673582212205245e260357017f4ed20b3781e5646f9bd6c31d8dfbe50540c90446b9ba05df264736f6c63430008140033",
  "immutableReferences": {},
  "source": "// SPDX-License-Identifier: MIT\npragma solidity ^0.8.20;\n\ncontract ReputationBasic {\n    struct Feedback { uint256 score; address user; uint256 timestamp; }\n\n    mapping(address => uint256) public reputationSum;\n    mapping(address => uint256) public feedbackCount;\n    mapping(address => Feedback[]) public feedbacks;\n\n    event FeedbackSubmitted(address indexed model, address indexed user, uint256 score);\n\n    function submitFeedback(address model, uint256 score) external {\n        require(score <= 100, \"Score must be 0..100\");\n        feedbacks[model].push(Feedback(score, msg.sender, block.timestamp));\n        reputationSum[model] += score;\n        feedbackCount[model] += 1;\n        emit FeedbackSubmitted(model, msg.sender, score);\n    }\n\n    function getAverage(address model) external view returns (uint256 avgTimes100) {\n        uint256 cnt = feedbackCount[model];\n        if (cnt == 0) return 0;\n        return (reputationSum[model] * 100) / cnt;\n    }\n}\n",
  "sourcePath": "/home/sk02352/zktrustllm-phase1/contracts/ReputationBasic.sol",
  "compiler": {
    "name": "solc",
    "version": "0.8.20+commit.a1b79de6.Emscripten.clang"
  },
  "schemaVersion": "3.4.16",
  "updatedAt": "2025-09-04T09:43:39.254Z",
  "networkType": "ethereum",
  "devdoc": {
    "kind": "dev",
    "methods": {},
    "version": 1
  },
  "userdoc": {
    "kind": "user",
    "methods": {},
    "version": 1
  }
}