{
  "contractName": "ReputationWithZK",
  "abi": [
    {
      "inputs": [
        {
          "internalType": "address",
          "name": "_verifier",
          "type": "address"
        }
      ],
      "stateMutability": "nonpayable",
      "type": "constructor"
    },
    {
      "anonymous": false,
      "inputs": [
        {
          "indexed": true,
          "internalType": "address",
          "name": "model",
          "type": "address"
        },
        {
          "indexed": true,
          "internalType": "address",
          "name": "user",
          "type": "address"
        },
        {
          "indexed": false,
          "internalType": "uint256",
          "name": "scoreHash",
          "type": "uint256"
        }
      ],
      "name": "FeedbackSubmitted",
      "type": "event"
    },
    {
      "inputs": [
        {
          "internalType": "address",
          "name": "",
          "type": "address"
        }
      ],
      "name": "feedbackCount",
      "outputs": [
        {
          "internalType": "uint256",
          "name": "",
          "type": "uint256"
        }
      ],
      "stateMutability": "view",
      "type": "function",
      "constant": true
    },
    {
      "inputs": [
        {
          "internalType": "address",
          "name": "",
          "type": "address"
        },
        {
          "internalType": "uint256",
          "name": "",
          "type": "uint256"
        }
      ],
      "name": "feedbacks",
      "outputs": [
        {
          "internalType": "uint256",
          "name": "scoreHash",
          "type": "uint256"
        },
        {
          "internalType": "address",
          "name": "user",
          "type": "address"
        },
        {
          "internalType": "uint256",
          "name": "timestamp",
          "type": "uint256"
        }
      ],
      "stateMutability": "view",
      "type": "function",
      "constant": true
    },
    {
      "inputs": [
        {
          "internalType": "address",
          "name": "",
          "type": "address"
        }
      ],
      "name": "reputationSum",
      "outputs": [
        {
          "internalType": "uint256",
          "name": "",
          "type": "uint256"
        }
      ],
      "stateMutability": "view",
      "type": "function",
      "constant": true
    },
    {
      "inputs": [],
      "name": "verifier",
      "outputs": [
        {
          "internalType": "contract IVerifier",
          "name": "",
          "type": "address"
        }
      ],
      "stateMutability": "view",
      "type": "function",
      "constant": true
    },
    {
      "inputs": [
        {
          "internalType": "address",
          "name": "model",
          "type": "address"
        },
        {
          "components": [
            {
              "components": [
                {
                  "internalType": "uint256",
                  "name": "X",
                  "type": "uint256"
                },
                {
                  "internalType": "uint256",
                  "name": "Y",
                  "type": "uint256"
                }
              ],
              "internalType": "struct IVerifier.G1Point",
              "name": "A",
              "type": "tuple"
            },
            {
              "components": [
                {
                  "internalType": "uint256[2]",
                  "name": "X",
                  "type": "uint256[2]"
                },
                {
                  "internalType": "uint256[2]",
                  "name": "Y",
                  "type": "uint256[2]"
                }
              ],
              "internalType": "struct IVerifier.G2Point",
              "name": "B",
              "type": "tuple"
            },
            {
              "components": [
                {
                  "internalType": "uint256",
                  "name": "X",
                  "type": "uint256"
                },
                {
                  "internalType": "uint256",
                  "name": "Y",
                  "type": "uint256"
                }
              ],
              "internalType": "struct IVerifier.G1Point",
              "name": "C",
              "type": "tuple"
            }
          ],
          "internalType": "struct IVerifier.Proof",
          "name": "proof",
          "type": "tuple"
        },
        {
          "internalType": "uint256[10]",
          "name": "input",
          "type": "uint256[10]"
        },
        {
          "internalType": "uint256",
          "name": "scoreHash",
          "type": "uint256"
        },
        {
          "internalType": "uint256",
          "name": "revealedScore",
          "type": "uint256"
        }
      ],
      "name": "submitFeedbackZK",
      "outputs": [],
      "stateMutability": "nonpayable",
      "type": "function"
    },
    {
      "inputs": [
        {
          "internalType": "address",
          "name": "model",
          "type": "address"
        }
      ],
      "name": "getAverage",
      "outputs": [
        {
          "internalType": "uint256",
          "name": "avgTimes100",
          "type": "uint256"
        }
      ],
      "stateMutability": "view",
      "type": "function",
      "constant": true
    }
  ],
  "bytecode": "0x608060405234801562000010575f80fd5b5060405162001196380380620011968339818101604052810190620000369190620000e1565b805f806101000a81548173ffffffffffffffffffffffffffffffffffffffff021916908373ffffffffffffffffffffffffffffffffffffffff1602179055505062000111565b5f80fd5b5f73ffffffffffffffffffffffffffffffffffffffff82169050919050565b5f620000ab8262000080565b9050919050565b620000bd816200009f565b8114620000c8575f80fd5b50565b5f81519050620000db81620000b2565b92915050565b5f60208284031215620000f957620000f86200007c565b5b5f6200010884828501620000cb565b91505092915050565b611077806200011f5f395ff3fe608060405234801561000f575f80fd5b5060043610610060575f3560e01c80632b7ac3f314610064578063848d7310146100825780638c6529c11461009e578063ce427bff146100d0578063d216176e14610100578063da1b3fe214610130575b5f80fd5b61006c610160565b60405161007991906106b6565b60405180910390f35b61009c60048036038101906100979190610a36565b610183565b005b6100b860048036038101906100b39190610ab1565b610503565b6040516100c793929190610b0d565b60405180910390f35b6100ea60048036038101906100e59190610b42565b610562565b6040516100f79190610b6d565b60405180910390f35b61011a60048036038101906101159190610b42565b610612565b6040516101279190610b6d565b60405180910390f35b61014a60048036038101906101459190610b42565b610627565b6040516101579190610b6d565b60405180910390f35b5f8054906101000a900473ffffffffffffffffffffffffffffffffffffffff1681565b6064835f600a811061019857610197610b86565b5b6020020151146101dd576040517f08c379a00000000000000000000000000000000000000000000000000000000081526004016101d490610c0d565b60405180910390fd5b5f8054906101000a900473ffffffffffffffffffffffffffffffffffffffff1673ffffffffffffffffffffffffffffffffffffffff166311bfe45a85856040518363ffffffff1660e01b8152600401610237929190610dea565b602060405180830381865afa158015610252573d5f803e3d5ffd5b505050506040513d601f19601f820116820180604052508101906102769190610e48565b6102b5576040517f08c379a00000000000000000000000000000000000000000000000000000000081526004016102ac90610ebd565b60405180910390fd5b60035f8673ffffffffffffffffffffffffffffffffffffffff1673ffffffffffffffffffffffffffffffffffffffff1681526020019081526020015f2060405180606001604052808481526020013373ffffffffffffffffffffffffffffffffffffffff16815260200142815250908060018154018082558091505060019003905f5260205f2090600302015f909190919091505f820151815f01556020820151816001015f6101000a81548173ffffffffffffffffffffffffffffffffffffffff021916908373ffffffffffffffffffffffffffffffffffffffff160217905550604082015181600201555050600160025f8773ffffffffffffffffffffffffffffffffffffffff1673ffffffffffffffffffffffffffffffffffffffff1681526020019081526020015f205f8282546103f09190610f08565b925050819055505f811115610497576064811115610443576040517f08c379a000000000000000000000000000000000000000000000000000000000815260040161043a90610f85565b60405180910390fd5b8060015f8773ffffffffffffffffffffffffffffffffffffffff1673ffffffffffffffffffffffffffffffffffffffff1681526020019081526020015f205f82825461048f9190610f08565b925050819055505b3373ffffffffffffffffffffffffffffffffffffffff168573ffffffffffffffffffffffffffffffffffffffff167fe05f16f280c4b695e5f4cac026c5cbf6f0115d82d183abeed61436dde8b5da1d846040516104f49190610b6d565b60405180910390a35050505050565b6003602052815f5260405f20818154811061051c575f80fd5b905f5260205f2090600302015f9150915050805f015490806001015f9054906101000a900473ffffffffffffffffffffffffffffffffffffffff16908060020154905083565b5f8060025f8473ffffffffffffffffffffffffffffffffffffffff1673ffffffffffffffffffffffffffffffffffffffff1681526020019081526020015f205490505f81036105b4575f91505061060d565b80606460015f8673ffffffffffffffffffffffffffffffffffffffff1673ffffffffffffffffffffffffffffffffffffffff1681526020019081526020015f20546105ff9190610fa3565b6106099190611011565b9150505b919050565b6001602052805f5260405f205f915090505481565b6002602052805f5260405f205f915090505481565b5f73ffffffffffffffffffffffffffffffffffffffff82169050919050565b5f819050919050565b5f61067e6106796106748461063c565b61065b565b61063c565b9050919050565b5f61068f82610664565b9050919050565b5f6106a082610685565b9050919050565b6106b081610696565b82525050565b5f6020820190506106c95f8301846106a7565b92915050565b5f604051905090565b5f80fd5b5f6106e68261063c565b9050919050565b6106f6816106dc565b8114610700575f80fd5b50565b5f81359050610711816106ed565b92915050565b5f80fd5b5f601f19601f8301169050919050565b7f4e487b71000000000000000000000000000000000000000000000000000000005f52604160045260245ffd5b6107618261071b565b810181811067ffffffffffffffff821117156107805761077f61072b565b5b80604052505050565b5f6107926106cf565b905061079e8282610758565b919050565b5f819050919050565b6107b5816107a3565b81146107bf575f80fd5b50565b5f813590506107d0816107ac565b92915050565b5f604082840312156107eb576107ea610717565b5b6107f56040610789565b90505f610804848285016107c2565b5f830152506020610817848285016107c2565b60208301525092915050565b5f80fd5b5f67ffffffffffffffff8211156108415761084061072b565b5b602082029050919050565b5f80fd5b5f61086261085d84610827565b610789565b9050806020840283018581111561087c5761087b61084c565b5b835b818110156108a5578061089188826107c2565b84526020840193505060208101905061087e565b5050509392505050565b5f82601f8301126108c3576108c2610823565b5b60026108d0848285610850565b91505092915050565b5f608082840312156108ee576108ed610717565b5b6108f86040610789565b90505f610907848285016108af565b5f83015250604061091a848285016108af565b60208301525092915050565b5f610100828403121561093c5761093b610717565b5b6109466060610789565b90505f610955848285016107d6565b5f830152506040610968848285016108d9565b60208301525060c061097c848285016107d6565b60408301525092915050565b5f67ffffffffffffffff8211156109a2576109a161072b565b5b602082029050919050565b5f6109bf6109ba84610988565b610789565b905080602084028301858111156109d9576109d861084c565b5b835b81811015610a0257806109ee88826107c2565b8452602084019350506020810190506109db565b5050509392505050565b5f82601f830112610a2057610a1f610823565b5b600a610a2d8482856109ad565b91505092915050565b5f805f805f6102a08688031215610a5057610a4f6106d8565b5b5f610a5d88828901610703565b9550506020610a6e88828901610926565b945050610120610a8088828901610a0c565b935050610260610a92888289016107c2565b925050610280610aa4888289016107c2565b9150509295509295909350565b5f8060408385031215610ac757610ac66106d8565b5b5f610ad485828601610703565b9250506020610ae5858286016107c2565b9150509250929050565b610af8816107a3565b82525050565b610b07816106dc565b82525050565b5f606082019050610b205f830186610aef565b610b2d6020830185610afe565b610b3a6040830184610aef565b949350505050565b5f60208284031215610b5757610b566106d8565b5b5f610b6484828501610703565b91505092915050565b5f602082019050610b805f830184610aef565b92915050565b7f4e487b71000000000000000000000000000000000000000000000000000000005f52603260045260245ffd5b5f82825260208201905092915050565b7f426f756e64206d757374206265203130300000000000000000000000000000005f82015250565b5f610bf7601183610bb3565b9150610c0282610bc3565b602082019050919050565b5f6020820190508181035f830152610c2481610beb565b9050919050565b610c34816107a3565b82525050565b604082015f820151610c4e5f850182610c2b565b506020820151610c616020850182610c2b565b50505050565b5f60029050919050565b5f81905092915050565b5f819050919050565b5f610c8f8383610c2b565b60208301905092915050565b5f602082019050919050565b610cb081610c67565b610cba8184610c71565b9250610cc582610c7b565b805f5b83811015610cf5578151610cdc8782610c84565b9650610ce783610c9b565b925050600181019050610cc8565b505050505050565b608082015f820151610d115f850182610ca7565b506020820151610d246040850182610ca7565b50505050565b61010082015f820151610d3f5f850182610c3a565b506020820151610d526040850182610cfd565b506040820151610d6560c0850182610c3a565b50505050565b5f600a9050919050565b5f81905092915050565b5f819050919050565b5f602082019050919050565b610d9d81610d6b565b610da78184610d75565b9250610db282610d7f565b805f5b83811015610de2578151610dc98782610c84565b9650610dd483610d88565b925050600181019050610db5565b505050505050565b5f61024082019050610dfe5f830185610d2a565b610e0c610100830184610d94565b9392505050565b5f8115159050919050565b610e2781610e13565b8114610e31575f80fd5b50565b5f81519050610e4281610e1e565b92915050565b5f60208284031215610e5d57610e5c6106d8565b5b5f610e6a84828501610e34565b91505092915050565b7f496e76616c6964205a4b2070726f6f66000000000000000000000000000000005f82015250565b5f610ea7601083610bb3565b9150610eb282610e73565b602082019050919050565b5f6020820190508181035f830152610ed481610e9b565b9050919050565b7f4e487b71000000000000000000000000000000000000000000000000000000005f52601160045260245ffd5b5f610f12826107a3565b9150610f1d836107a3565b9250828201905080821115610f3557610f34610edb565b5b92915050565b7f4261642072657665616c000000000000000000000000000000000000000000005f82015250565b5f610f6f600a83610bb3565b9150610f7a82610f3b565b602082019050919050565b5f6020820190508181035f830152610f9c81610f63565b9050919050565b5f610fad826107a3565b9150610fb8836107a3565b9250828202610fc6816107a3565b91508282048414831517610fdd57610fdc610edb565b5b5092915050565b7f4e487b71000000000000000000000000000000000000000000000000000000005f52601260045260245ffd5b5f61101b826107a3565b9150611026836107a3565b92508261103657611035610fe4565b5b82820490509291505056fea26469706673582212207fe89d3e54da6342218087d6c8b9f8ca2f9d018aca92af5097c8ef12e1542d9164736f6c63430008140033",
  "immutableReferences": {},
  "source": "// SPDX-License-Identifier: MIT\npragma solidity ^0.8.20;\n\nimport \"./IVerifier.sol\";\n\ncontract ReputationWithZK {\n    IVerifier public verifier;\n\n    struct Feedback { uint256 scoreHash; address user; uint256 timestamp; }\n    mapping(address => uint256) public reputationSum;   // sum of revealed scores (optional)\n    mapping(address => uint256) public feedbackCount;\n    mapping(address => Feedback[]) public feedbacks;\n\n    event FeedbackSubmitted(address indexed model, address indexed user, uint256 scoreHash);\n\n    constructor(address _verifier) { verifier = IVerifier(_verifier); }\n\n    // Match the verifier: uint256[10] inputs; use input[0] as 'bound' policy (100)\n    function submitFeedbackZK(\n        address model,\n        IVerifier.Proof memory proof,\n        uint256[10] memory input,\n        uint256 scoreHash,       // keccak256(abi.encode(score)) computed off-chain\n        uint256 revealedScore    // 0 to keep private; else must be <= 100\n    ) external {\n        require(input[0] == 100, \"Bound must be 100\");\n        require(verifier.verifyTx(proof, input), \"Invalid ZK proof\");\n\n        feedbacks[model].push(Feedback(scoreHash, msg.sender, block.timestamp));\n        feedbackCount[model] += 1;\n\n        if (revealedScore > 0) {\n            require(revealedScore <= 100, \"Bad reveal\");\n            reputationSum[model] += revealedScore;\n        }\n\n        emit FeedbackSubmitted(model, msg.sender, scoreHash);\n    }\n\n    function getAverage(address model) external view returns (uint256 avgTimes100) {\n        uint256 cnt = feedbackCount[model];\n        if (cnt == 0) return 0;\n        return (reputationSum[model] * 100) / cnt;\n    }\n}\n",
  "sourcePath": "/home/sk02352/zktrustllm-phase1/contracts/ReputationWithZK.sol",
  "compiler": {
    "name": "solc",
    "version": "0.8.20+commit.a1b79de6.Emscripten.clang"
  },
  "schemaVersion": "3.4.16",
  "updatedAt": "2025-09-04T09:43:39.394Z",
  "networkType": "ethereum",
  "devdoc": {
    "kind": "dev",
    "methods": {},
    "version": 1
  },
  "userdoc": {
    "kind": "user",
    "methods": {},
    "version": 1
  }
}