{
  "contractName": "ReputationManager",
  "abi": [
    {
      "inputs": [
        {
          "internalType": "address",
          "name": "_verifier",
          "type": "address"
        },
        {
          "internalType": "address",
          "name": "oracle",
          "type": "address"
        }
      ],
      "stateMutability": "nonpayable",
      "type": "constructor"
    },
    {
      "inputs": [],
      "name": "AccessControlBadConfirmation",
      "type": "error"
    },
    {
      "inputs": [
        {
          "internalType": "address",
          "name": "account",
          "type": "address"
        },
        {
          "internalType": "bytes32",
          "name": "neededRole",
          "type": "bytes32"
        }
      ],
      "name": "AccessControlUnauthorizedAccount",
      "type": "error"
    },
    {
      "anonymous": false,
      "inputs": [
        {
          "indexed": true,
          "internalType": "bytes32",
          "name": "modelId",
          "type": "bytes32"
        },
        {
          "indexed": false,
          "internalType": "uint256",
          "name": "autoScoreBP",
          "type": "uint256"
        }
      ],
      "name": "AutoScorePosted",
      "type": "event"
    },
    {
      "anonymous": false,
      "inputs": [
        {
          "indexed": true,
          "internalType": "bytes32",
          "name": "modelId",
          "type": "bytes32"
        },
        {
          "indexed": false,
          "internalType": "uint8",
          "name": "rating",
          "type": "uint8"
        },
        {
          "indexed": false,
          "internalType": "bytes32",
          "name": "commitment",
          "type": "bytes32"
        }
      ],
      "name": "HumanFeedback",
      "type": "event"
    },
    {
      "anonymous": false,
      "inputs": [
        {
          "indexed": true,
          "internalType": "bytes32",
          "name": "role",
          "type": "bytes32"
        },
        {
          "indexed": true,
          "internalType": "bytes32",
          "name": "previousAdminRole",
          "type": "bytes32"
        },
        {
          "indexed": true,
          "internalType": "bytes32",
          "name": "newAdminRole",
          "type": "bytes32"
        }
      ],
      "name": "RoleAdminChanged",
      "type": "event"
    },
    {
      "anonymous": false,
      "inputs": [
        {
          "indexed": true,
          "internalType": "bytes32",
          "name": "role",
          "type": "bytes32"
        },
        {
          "indexed": true,
          "internalType": "address",
          "name": "account",
          "type": "address"
        },
        {
          "indexed": true,
          "internalType": "address",
          "name": "sender",
          "type": "address"
        }
      ],
      "name": "RoleGranted",
      "type": "event"
    },
    {
      "anonymous": false,
      "inputs": [
        {
          "indexed": true,
          "internalType": "bytes32",
          "name": "role",
          "type": "bytes32"
        },
        {
          "indexed": true,
          "internalType": "address",
          "name": "account",
          "type": "address"
        },
        {
          "indexed": true,
          "internalType": "address",
          "name": "sender",
          "type": "address"
        }
      ],
      "name": "RoleRevoked",
      "type": "event"
    },
    {
      "inputs": [],
      "name": "DEFAULT_ADMIN_ROLE",
      "outputs": [
        {
          "internalType": "bytes32",
          "name": "",
          "type": "bytes32"
        }
      ],
      "stateMutability": "view",
      "type": "function"
    },
    {
      "inputs": [],
      "name": "ORACLE_ROLE",
      "outputs": [
        {
          "internalType": "bytes32",
          "name": "",
          "type": "bytes32"
        }
      ],
      "stateMutability": "view",
      "type": "function"
    },
    {
      "inputs": [
        {
          "internalType": "bytes32",
          "name": "role",
          "type": "bytes32"
        }
      ],
      "name": "getRoleAdmin",
      "outputs": [
        {
          "internalType": "bytes32",
          "name": "",
          "type": "bytes32"
        }
      ],
      "stateMutability": "view",
      "type": "function"
    },
    {
      "inputs": [
        {
          "internalType": "bytes32",
          "name": "role",
          "type": "bytes32"
        },
        {
          "internalType": "address",
          "name": "account",
          "type": "address"
        }
      ],
      "name": "grantRole",
      "outputs": [],
      "stateMutability": "nonpayable",
      "type": "function"
    },
    {
      "inputs": [
        {
          "internalType": "bytes32",
          "name": "role",
          "type": "bytes32"
        },
        {
          "internalType": "address",
          "name": "account",
          "type": "address"
        }
      ],
      "name": "hasRole",
      "outputs": [
        {
          "internalType": "bool",
          "name": "",
          "type": "bool"
        }
      ],
      "stateMutability": "view",
      "type": "function"
    },
    {
      "inputs": [
        {
          "internalType": "bytes32",
          "name": "role",
          "type": "bytes32"
        },
        {
          "internalType": "address",
          "name": "callerConfirmation",
          "type": "address"
        }
      ],
      "name": "renounceRole",
      "outputs": [],
      "stateMutability": "nonpayable",
      "type": "function"
    },
    {
      "inputs": [
        {
          "internalType": "bytes32",
          "name": "role",
          "type": "bytes32"
        },
        {
          "internalType": "address",
          "name": "account",
          "type": "address"
        }
      ],
      "name": "revokeRole",
      "outputs": [],
      "stateMutability": "nonpayable",
      "type": "function"
    },
    {
      "inputs": [
        {
          "internalType": "bytes32",
          "name": "",
          "type": "bytes32"
        }
      ],
      "name": "stats",
      "outputs": [
        {
          "internalType": "uint256",
          "name": "humanSum",
          "type": "uint256"
        },
        {
          "internalType": "uint256",
          "name": "humanCount",
          "type": "uint256"
        },
        {
          "internalType": "uint256",
          "name": "autoScoreBP",
          "type": "uint256"
        }
      ],
      "stateMutability": "view",
      "type": "function"
    },
    {
      "inputs": [
        {
          "internalType": "bytes4",
          "name": "interfaceId",
          "type": "bytes4"
        }
      ],
      "name": "supportsInterface",
      "outputs": [
        {
          "internalType": "bool",
          "name": "",
          "type": "bool"
        }
      ],
      "stateMutability": "view",
      "type": "function"
    },
    {
      "inputs": [],
      "name": "verifier",
      "outputs": [
        {
          "internalType": "contract IVerifier",
          "name": "",
          "type": "address"
        }
      ],
      "stateMutability": "view",
      "type": "function"
    },
    {
      "inputs": [
        {
          "internalType": "bytes32",
          "name": "modelId",
          "type": "bytes32"
        },
        {
          "internalType": "uint256",
          "name": "autoScoreBP",
          "type": "uint256"
        }
      ],
      "name": "postAutoScore",
      "outputs": [],
      "stateMutability": "nonpayable",
      "type": "function"
    },
    {
      "inputs": [
        {
          "internalType": "bytes32",
          "name": "modelId",
          "type": "bytes32"
        },
        {
          "internalType": "uint8",
          "name": "rating",
          "type": "uint8"
        },
        {
          "internalType": "bytes32",
          "name": "commitment",
          "type": "bytes32"
        },
        {
          "internalType": "uint256[2]",
          "name": "a",
          "type": "uint256[2]"
        },
        {
          "internalType": "uint256[2][2]",
          "name": "b",
          "type": "uint256[2][2]"
        },
        {
          "internalType": "uint256[2]",
          "name": "c",
          "type": "uint256[2]"
        },
        {
          "internalType": "uint256[10]",
          "name": "input",
          "type": "uint256[10]"
        }
      ],
      "name": "submitHumanFeedbackZK",
      "outputs": [],
      "stateMutability": "nonpayable",
      "type": "function"
    },
    {
      "inputs": [
        {
          "internalType": "bytes32",
          "name": "modelId",
          "type": "bytes32"
        }
      ],
      "name": "getReputationBP",
      "outputs": [
        {
          "internalType": "uint256",
          "name": "Rbp",
          "type": "uint256"
        },
        {
          "internalType": "uint256",
          "name": "humanBP",
          "type": "uint256"
        },
        {
          "internalType": "uint256",
          "name": "autoBP",
          "type": "uint256"
        }
      ],
      "stateMutability": "view",
      "type": "function"
    }
  ],
  "bytecode": "0x608060405234801562000010575f80fd5b506040516200164738038062001647833981810160405281019062000036919062000290565b8160015f6101000a81548173ffffffffffffffffffffffffffffffffffffffff021916908373ffffffffffffffffffffffffffffffffffffffff1602179055506200008a5f801b33620000c660201b60201c565b50620000bd7f68e79a7bf1e0bc45d0a330c573bc367f9cf464fd326078812f301165fbda4ef182620000c660201b60201c565b505050620002d5565b5f620000d98383620001c160201b60201c565b620001b75760015f808581526020019081526020015f205f015f8473ffffffffffffffffffffffffffffffffffffffff1673ffffffffffffffffffffffffffffffffffffffff1681526020019081526020015f205f6101000a81548160ff021916908315150217905550620001536200022460201b60201c565b73ffffffffffffffffffffffffffffffffffffffff168273ffffffffffffffffffffffffffffffffffffffff16847f2f8788117e7eff1d82e926ec794901d17c78024a50270940304540a733656f0d60405160405180910390a460019050620001bb565b5f90505b92915050565b5f805f8481526020019081526020015f205f015f8373ffffffffffffffffffffffffffffffffffffffff1673ffffffffffffffffffffffffffffffffffffffff1681526020019081526020015f205f9054906101000a900460ff16905092915050565b5f33905090565b5f80fd5b5f73ffffffffffffffffffffffffffffffffffffffff82169050919050565b5f6200025a826200022f565b9050919050565b6200026c816200024e565b811462000277575f80fd5b50565b5f815190506200028a8162000261565b92915050565b5f8060408385031215620002a957620002a86200022b565b5b5f620002b8858286016200027a565b9250506020620002cb858286016200027a565b9150509250929050565b61136480620002e35f395ff3fe608060405234801561000f575f80fd5b50600436106100cd575f3560e01c80634e9624cf1161008a578063a217fddf11610064578063a217fddf1461020d578063ae97568c1461022b578063d547741f1461025d578063fd438d5914610279576100cd565b80634e9624cf146101a55780637f86ea4c146101c157806391d14854146101dd576100cd565b806301ffc9a7146100d157806307e2cea514610101578063248a9ca31461011f5780632b7ac3f31461014f5780632f2ff15d1461016d57806336568abe14610189575b5f80fd5b6100eb60048036038101906100e69190610b05565b6102ab565b6040516100f89190610b4a565b60405180910390f35b610109610324565b6040516101169190610b7b565b60405180910390f35b61013960048036038101906101349190610bbe565b610348565b6040516101469190610b7b565b60405180910390f35b610157610364565b6040516101649190610c63565b60405180910390f35b61018760048036038101906101829190610cb7565b610389565b005b6101a3600480360381019061019e9190610cb7565b6103ab565b005b6101bf60048036038101906101ba9190610d92565b610426565b005b6101db60048036038101906101d69190610e65565b610603565b005b6101f760048036038101906101f29190610cb7565b6106c8565b6040516102049190610b4a565b60405180910390f35b61021561072b565b6040516102229190610b7b565b60405180910390f35b61024560048036038101906102409190610bbe565b610731565b60405161025493929190610eb2565b60405180910390f35b61027760048036038101906102729190610cb7565b610757565b005b610293600480360381019061028e9190610bbe565b610779565b6040516102a293929190610eb2565b60405180910390f35b5f7f7965db0b000000000000000000000000000000000000000000000000000000007bffffffffffffffffffffffffffffffffffffffffffffffffffffffff1916827bffffffffffffffffffffffffffffffffffffffffffffffffffffffff1916148061031d575061031c82610805565b5b9050919050565b7f68e79a7bf1e0bc45d0a330c573bc367f9cf464fd326078812f301165fbda4ef181565b5f805f8381526020019081526020015f20600101549050919050565b60015f9054906101000a900473ffffffffffffffffffffffffffffffffffffffff1681565b61039282610348565b61039b8161086e565b6103a58383610882565b50505050565b6103b361096b565b73ffffffffffffffffffffffffffffffffffffffff168173ffffffffffffffffffffffffffffffffffffffff1614610417576040517f6697b23200000000000000000000000000000000000000000000000000000000815260040160405180910390fd5b6104218282610972565b505050565b60015f9054906101000a900473ffffffffffffffffffffffffffffffffffffffff1673ffffffffffffffffffffffffffffffffffffffff1663e27046e1858585856040518563ffffffff1660e01b81526004016104869493929190610fc9565b602060405180830381865afa1580156104a1573d5f803e3d5ffd5b505050506040513d601f19601f820116820180604052508101906104c59190611038565b610504576040517f08c379a00000000000000000000000000000000000000000000000000000000081526004016104fb906110bd565b60405180910390fd5b60018660ff161015801561051c575060058660ff1611155b61055b576040517f08c379a000000000000000000000000000000000000000000000000000000000815260040161055290611125565b60405180910390fd5b5f60025f8981526020019081526020015f20905060056127108860ff166105829190611170565b61058c91906111de565b815f015f82825461059d919061120e565b925050819055506001816001015f8282546105b8919061120e565b92505081905550877ff784bd44fb9af8efdc3a13fa57fcdd5aa4b5d6bf9f86c9e7f53cf09aed4a81bc88886040516105f1929190611250565b60405180910390a25050505050505050565b7f68e79a7bf1e0bc45d0a330c573bc367f9cf464fd326078812f301165fbda4ef161062d8161086e565b612710821115610672576040517f08c379a0000000000000000000000000000000000000000000000000000000008152600401610669906112c1565b60405180910390fd5b8160025f8581526020019081526020015f2060020181905550827f561b1f0136f36f22040deafc3bdc3098c28070fa101bd8ab6f6f4582f10801d0836040516106bb91906112df565b60405180910390a2505050565b5f805f8481526020019081526020015f205f015f8373ffffffffffffffffffffffffffffffffffffffff1673ffffffffffffffffffffffffffffffffffffffff1681526020019081526020015f205f9054906101000a900460ff16905092915050565b5f801b81565b6002602052805f5260405f205f91509050805f0154908060010154908060020154905083565b61076082610348565b6107698161086e565b6107738383610972565b50505050565b5f805f8060025f8681526020019081526020015f2090505f8160010154146107b3578060010154815f01546107ae91906111de565b6107b5565b5f5b9250806002015491505f61138890505f611388905061271081856107d99190611170565b83876107e59190611170565b6107ef919061120e565b6107f991906111de565b95505050509193909250565b5f7f01ffc9a7000000000000000000000000000000000000000000000000000000007bffffffffffffffffffffffffffffffffffffffffffffffffffffffff1916827bffffffffffffffffffffffffffffffffffffffffffffffffffffffff1916149050919050565b61087f8161087a61096b565b610a5b565b50565b5f61088d83836106c8565b6109615760015f808581526020019081526020015f205f015f8473ffffffffffffffffffffffffffffffffffffffff1673ffffffffffffffffffffffffffffffffffffffff1681526020019081526020015f205f6101000a81548160ff0219169083151502179055506108fe61096b565b73ffffffffffffffffffffffffffffffffffffffff168273ffffffffffffffffffffffffffffffffffffffff16847f2f8788117e7eff1d82e926ec794901d17c78024a50270940304540a733656f0d60405160405180910390a460019050610965565b5f90505b92915050565b5f33905090565b5f61097d83836106c8565b15610a51575f805f8581526020019081526020015f205f015f8473ffffffffffffffffffffffffffffffffffffffff1673ffffffffffffffffffffffffffffffffffffffff1681526020019081526020015f205f6101000a81548160ff0219169083151502179055506109ee61096b565b73ffffffffffffffffffffffffffffffffffffffff168273ffffffffffffffffffffffffffffffffffffffff16847ff6391f5c32d9c69d2a47ea670b442974b53935d1edc7fd64eb21e047a839171b60405160405180910390a460019050610a55565b5f90505b92915050565b610a6582826106c8565b610aa85780826040517fe2517d3f000000000000000000000000000000000000000000000000000000008152600401610a9f929190611307565b60405180910390fd5b5050565b5f80fd5b5f7fffffffff0000000000000000000000000000000000000000000000000000000082169050919050565b610ae481610ab0565b8114610aee575f80fd5b50565b5f81359050610aff81610adb565b92915050565b5f60208284031215610b1a57610b19610aac565b5b5f610b2784828501610af1565b91505092915050565b5f8115159050919050565b610b4481610b30565b82525050565b5f602082019050610b5d5f830184610b3b565b92915050565b5f819050919050565b610b7581610b63565b82525050565b5f602082019050610b8e5f830184610b6c565b92915050565b610b9d81610b63565b8114610ba7575f80fd5b50565b5f81359050610bb881610b94565b92915050565b5f60208284031215610bd357610bd2610aac565b5b5f610be084828501610baa565b91505092915050565b5f73ffffffffffffffffffffffffffffffffffffffff82169050919050565b5f819050919050565b5f610c2b610c26610c2184610be9565b610c08565b610be9565b9050919050565b5f610c3c82610c11565b9050919050565b5f610c4d82610c32565b9050919050565b610c5d81610c43565b82525050565b5f602082019050610c765f830184610c54565b92915050565b5f610c8682610be9565b9050919050565b610c9681610c7c565b8114610ca0575f80fd5b50565b5f81359050610cb181610c8d565b92915050565b5f8060408385031215610ccd57610ccc610aac565b5b5f610cda85828601610baa565b9250506020610ceb85828601610ca3565b9150509250929050565b5f60ff82169050919050565b610d0a81610cf5565b8114610d14575f80fd5b50565b5f81359050610d2581610d01565b92915050565b5f80fd5b5f81905082602060020282011115610d4a57610d49610d2b565b5b92915050565b5f81905082604060020282011115610d6b57610d6a610d2b565b5b92915050565b5f819050826020600a0282011115610d8c57610d8b610d2b565b5b92915050565b5f805f805f805f6102a0888a031215610dae57610dad610aac565b5b5f610dbb8a828b01610baa565b9750506020610dcc8a828b01610d17565b9650506040610ddd8a828b01610baa565b9550506060610dee8a828b01610d2f565b94505060a0610dff8a828b01610d50565b935050610120610e118a828b01610d2f565b925050610160610e238a828b01610d71565b91505092959891949750929550565b5f819050919050565b610e4481610e32565b8114610e4e575f80fd5b50565b5f81359050610e5f81610e3b565b92915050565b5f8060408385031215610e7b57610e7a610aac565b5b5f610e8885828601610baa565b9250506020610e9985828601610e51565b9150509250929050565b610eac81610e32565b82525050565b5f606082019050610ec55f830186610ea3565b610ed26020830185610ea3565b610edf6040830184610ea3565b949350505050565b82818337505050565b610efc60408383610ee7565b5050565b5f60029050919050565b5f81905092915050565b5f819050919050565b610f2960408383610ee7565b5050565b5f610f388383610f1d565b60408301905092915050565b5f82905092915050565b5f604082019050919050565b610f6381610f00565b610f6d8184610f0a565b9250610f7882610f14565b805f5b83811015610fb057610f8d8284610f44565b610f978782610f2d565b9650610fa283610f4e565b925050600181019050610f7b565b505050505050565b610fc56101408383610ee7565b5050565b5f61024082019050610fdd5f830187610ef0565b610fea6040830186610f5a565b610ff760c0830185610ef0565b611005610100830184610fb8565b95945050505050565b61101781610b30565b8114611021575f80fd5b50565b5f815190506110328161100e565b92915050565b5f6020828403121561104d5761104c610aac565b5b5f61105a84828501611024565b91505092915050565b5f82825260208201905092915050565b7f696e76616c69642070726f6f66000000000000000000000000000000000000005f82015250565b5f6110a7600d83611063565b91506110b282611073565b602082019050919050565b5f6020820190508181035f8301526110d48161109b565b9050919050565b7f726174696e6720312e2e350000000000000000000000000000000000000000005f82015250565b5f61110f600b83611063565b915061111a826110db565b602082019050919050565b5f6020820190508181035f83015261113c81611103565b9050919050565b7f4e487b71000000000000000000000000000000000000000000000000000000005f52601160045260245ffd5b5f61117a82610e32565b915061118583610e32565b925082820261119381610e32565b915082820484148315176111aa576111a9611143565b5b5092915050565b7f4e487b71000000000000000000000000000000000000000000000000000000005f52601260045260245ffd5b5f6111e882610e32565b91506111f383610e32565b925082611203576112026111b1565b5b828204905092915050565b5f61121882610e32565b915061122383610e32565b925082820190508082111561123b5761123a611143565b5b92915050565b61124a81610cf5565b82525050565b5f6040820190506112635f830185611241565b6112706020830184610b6c565b9392505050565b7f6175746f53636f7265206f7574206f662072616e6765000000000000000000005f82015250565b5f6112ab601683611063565b91506112b682611277565b602082019050919050565b5f6020820190508181035f8301526112d88161129f565b9050919050565b5f6020820190506112f25f830184610ea3565b92915050565b61130181610c7c565b82525050565b5f60408201905061131a5f8301856112f8565b6113276020830184610b6c565b939250505056fea2646970667358221220c28f6fb941e530abecb66987d58e8ad12df83ac5f7f219f544ba306124ea366b64736f6c63430008140033",
  "immutableReferences": {},
  "source": "// SPDX-License-Identifier: MIT\npragma solidity ^0.8.20;\n\nimport \"@openzeppelin/contracts/access/AccessControl.sol\";\n\ninterface IVerifier {\n    function verifyTx(\n        uint[2] calldata a,\n        uint[2][2] calldata b,\n        uint[2] calldata c,\n        uint[10] calldata input\n    ) external view returns (bool);\n}\n\ncontract ReputationManager is AccessControl {\n    bytes32 public constant ORACLE_ROLE = keccak256(\"ORACLE_ROLE\");\n\n    struct Stats {\n        uint256 humanSum;     // sum of human ratings scaled to 0..10000\n        uint256 humanCount;   // number of ratings\n        uint256 autoScoreBP;  // auto score in basis points (0..10000)\n    }\n\n    IVerifier public verifier;\n    mapping(bytes32 => Stats) public stats;\n\n    event AutoScorePosted(bytes32 indexed modelId, uint256 autoScoreBP);\n    event HumanFeedback(bytes32 indexed modelId, uint8 rating, bytes32 commitment);\n\n    constructor(address _verifier, address oracle) {\n        verifier = IVerifier(_verifier);\n        _grantRole(DEFAULT_ADMIN_ROLE, msg.sender);\n        _grantRole(ORACLE_ROLE, oracle);\n    }\n\n    function postAutoScore(bytes32 modelId, uint256 autoScoreBP) external onlyRole(ORACLE_ROLE) {\n        require(autoScoreBP <= 10000, \"autoScore out of range\");\n        stats[modelId].autoScoreBP = autoScoreBP;\n        emit AutoScorePosted(modelId, autoScoreBP);\n    }\n\n    function submitHumanFeedbackZK(\n        bytes32 modelId,\n        uint8 rating,\n        bytes32 commitment,\n        uint[2] calldata a,\n        uint[2][2] calldata b,\n        uint[2] calldata c,\n        uint[10] calldata input\n    ) external {\n        require(verifier.verifyTx(a, b, c, input), \"invalid proof\");\n        require(rating >= 1 && rating <= 5, \"rating 1..5\");\n\n        Stats storage s = stats[modelId];\n        // map 1..5 -> 2000..10000\n        s.humanSum += (uint256(rating) * 10000) / 5;\n        s.humanCount += 1;\n\n        emit HumanFeedback(modelId, rating, commitment);\n    }\n\n    function getReputationBP(bytes32 modelId)\n        external view\n        returns (uint256 Rbp, uint256 humanBP, uint256 autoBP)\n    {\n        Stats storage s = stats[modelId];\n        humanBP = (s.humanCount == 0) ? 0 : (s.humanSum / s.humanCount);\n        autoBP  = s.autoScoreBP;\n\n        uint256 wHumanBP = 5000; // 50%\n        uint256 wAutoBP  = 5000; // 50%\n        Rbp = (humanBP * wHumanBP + autoBP * wAutoBP) / 10000;\n    }\n}\n",
  "sourcePath": "/home/sk02352/zktrustllm-phase1/contracts/ReputationManager.sol",
  "compiler": {
    "name": "solc",
    "version": "0.8.20+commit.a1b79de6.Emscripten.clang"
  },
  "schemaVersion": "3.4.16",
  "updatedAt": "2025-09-02T10:43:39.023Z",
  "devdoc": {
    "errors": {
      "AccessControlBadConfirmation()": [
        {
          "details": "The caller of a function is not the expected one. NOTE: Don't confuse with {AccessControlUnauthorizedAccount}."
        }
      ],
      "AccessControlUnauthorizedAccount(address,bytes32)": [
        {
          "details": "The `account` is missing a role."
        }
      ]
    },
    "events": {
      "RoleAdminChanged(bytes32,bytes32,bytes32)": {
        "details": "Emitted when `newAdminRole` is set as ``role``'s admin role, replacing `previousAdminRole` `DEFAULT_ADMIN_ROLE` is the starting admin for all roles, despite {RoleAdminChanged} not being emitted to signal this."
      },
      "RoleGranted(bytes32,address,address)": {
        "details": "Emitted when `account` is granted `role`. `sender` is the account that originated the contract call. This account bears the admin role (for the granted role). Expected in cases where the role was granted using the internal {AccessControl-_grantRole}."
      },
      "RoleRevoked(bytes32,address,address)": {
        "details": "Emitted when `account` is revoked `role`. `sender` is the account that originated the contract call:   - if using `revokeRole`, it is the admin role bearer   - if using `renounceRole`, it is the role bearer (i.e. `account`)"
      }
    },
    "kind": "dev",
    "methods": {
      "getRoleAdmin(bytes32)": {
        "details": "Returns the admin role that controls `role`. See {grantRole} and {revokeRole}. To change a role's admin, use {_setRoleAdmin}."
      },
      "grantRole(bytes32,address)": {
        "details": "Grants `role` to `account`. If `account` had not been already granted `role`, emits a {RoleGranted} event. Requirements: - the caller must have ``role``'s admin role. May emit a {RoleGranted} event."
      },
      "hasRole(bytes32,address)": {
        "details": "Returns `true` if `account` has been granted `role`."
      },
      "renounceRole(bytes32,address)": {
        "details": "Revokes `role` from the calling account. Roles are often managed via {grantRole} and {revokeRole}: this function's purpose is to provide a mechanism for accounts to lose their privileges if they are compromised (such as when a trusted device is misplaced). If the calling account had been revoked `role`, emits a {RoleRevoked} event. Requirements: - the caller must be `callerConfirmation`. May emit a {RoleRevoked} event."
      },
      "revokeRole(bytes32,address)": {
        "details": "Revokes `role` from `account`. If `account` had been granted `role`, emits a {RoleRevoked} event. Requirements: - the caller must have ``role``'s admin role. May emit a {RoleRevoked} event."
      },
      "supportsInterface(bytes4)": {
        "details": "Returns true if this contract implements the interface defined by `interfaceId`. See the corresponding https://eips.ethereum.org/EIPS/eip-165#how-interfaces-are-identified[ERC section] to learn more about how these ids are created. This function call must use less than 30 000 gas."
      }
    },
    "version": 1
  },
  "userdoc": {
    "kind": "user",
    "methods": {},
    "version": 1
  }
}